{
  "contractName": "ETHCallOption",
  "abi": [
    {
      "constant": true,
      "inputs": [],
      "name": "name",
      "outputs": [
        {
          "name": "",
          "type": "string"
        }
      ],
      "payable": false,
      "stateMutability": "view",
      "type": "function"
    },
    {
      "constant": false,
      "inputs": [
        {
          "name": "spender",
          "type": "address"
        },
        {
          "name": "value",
          "type": "uint256"
        }
      ],
      "name": "approve",
      "outputs": [
        {
          "name": "",
          "type": "bool"
        }
      ],
      "payable": false,
      "stateMutability": "nonpayable",
      "type": "function"
    },
    {
      "constant": true,
      "inputs": [],
      "name": "totalSupply",
      "outputs": [
        {
          "name": "",
          "type": "uint256"
        }
      ],
      "payable": false,
      "stateMutability": "view",
      "type": "function"
    },
    {
      "constant": false,
      "inputs": [
        {
          "name": "sender",
          "type": "address"
        },
        {
          "name": "recipient",
          "type": "address"
        },
        {
          "name": "amount",
          "type": "uint256"
        }
      ],
      "name": "transferFrom",
      "outputs": [
        {
          "name": "",
          "type": "bool"
        }
      ],
      "payable": false,
      "stateMutability": "nonpayable",
      "type": "function"
    },
    {
      "constant": true,
      "inputs": [],
      "name": "decimals",
      "outputs": [
        {
          "name": "",
          "type": "uint8"
        }
      ],
      "payable": false,
      "stateMutability": "view",
      "type": "function"
    },
    {
      "constant": false,
      "inputs": [
        {
          "name": "spender",
          "type": "address"
        },
        {
          "name": "addedValue",
          "type": "uint256"
        }
      ],
      "name": "increaseAllowance",
      "outputs": [
        {
          "name": "",
          "type": "bool"
        }
      ],
      "payable": false,
      "stateMutability": "nonpayable",
      "type": "function"
    },
    {
      "constant": true,
      "inputs": [
        {
          "name": "account",
          "type": "address"
        }
      ],
      "name": "balanceOf",
      "outputs": [
        {
          "name": "",
          "type": "uint256"
        }
      ],
      "payable": false,
      "stateMutability": "view",
      "type": "function"
    },
    {
      "constant": true,
      "inputs": [],
      "name": "symbol",
      "outputs": [
        {
          "name": "",
          "type": "string"
        }
      ],
      "payable": false,
      "stateMutability": "view",
      "type": "function"
    },
    {
      "constant": false,
      "inputs": [
        {
          "name": "spender",
          "type": "address"
        },
        {
          "name": "subtractedValue",
          "type": "uint256"
        }
      ],
      "name": "decreaseAllowance",
      "outputs": [
        {
          "name": "",
          "type": "bool"
        }
      ],
      "payable": false,
      "stateMutability": "nonpayable",
      "type": "function"
    },
    {
      "constant": false,
      "inputs": [
        {
          "name": "recipient",
          "type": "address"
        },
        {
          "name": "amount",
          "type": "uint256"
        }
      ],
      "name": "transfer",
      "outputs": [
        {
          "name": "",
          "type": "bool"
        }
      ],
      "payable": false,
      "stateMutability": "nonpayable",
      "type": "function"
    },
    {
      "constant": true,
      "inputs": [
        {
          "name": "owner",
          "type": "address"
        },
        {
          "name": "spender",
          "type": "address"
        }
      ],
      "name": "allowance",
      "outputs": [
        {
          "name": "",
          "type": "uint256"
        }
      ],
      "payable": false,
      "stateMutability": "view",
      "type": "function"
    },
    {
      "inputs": [
        {
          "name": "expiration_timestamp",
          "type": "uint256"
        },
        {
          "name": "strike",
          "type": "uint256"
        },
        {
          "name": "name",
          "type": "string"
        },
        {
          "name": "symbol",
          "type": "string"
        }
      ],
      "payable": true,
      "stateMutability": "payable",
      "type": "constructor"
    },
    {
      "anonymous": false,
      "inputs": [
        {
          "indexed": true,
          "name": "owner",
          "type": "address"
        },
        {
          "indexed": false,
          "name": "amount",
          "type": "uint256"
        }
      ],
      "name": "OptionExercised",
      "type": "event"
    },
    {
      "anonymous": false,
      "inputs": [
        {
          "indexed": true,
          "name": "writer",
          "type": "address"
        },
        {
          "indexed": false,
          "name": "amount",
          "type": "uint256"
        }
      ],
      "name": "OptionWrote",
      "type": "event"
    },
    {
      "anonymous": false,
      "inputs": [
        {
          "indexed": true,
          "name": "from",
          "type": "address"
        },
        {
          "indexed": true,
          "name": "to",
          "type": "address"
        },
        {
          "indexed": false,
          "name": "value",
          "type": "uint256"
        }
      ],
      "name": "Transfer",
      "type": "event"
    },
    {
      "anonymous": false,
      "inputs": [
        {
          "indexed": true,
          "name": "owner",
          "type": "address"
        },
        {
          "indexed": true,
          "name": "spender",
          "type": "address"
        },
        {
          "indexed": false,
          "name": "value",
          "type": "uint256"
        }
      ],
      "name": "Approval",
      "type": "event"
    },
    {
      "constant": false,
      "inputs": [
        {
          "name": "operator",
          "type": "address"
        },
        {
          "name": "from",
          "type": "address"
        },
        {
          "name": "to",
          "type": "address"
        },
        {
          "name": "amount",
          "type": "uint256"
        },
        {
          "name": "userData",
          "type": "bytes"
        },
        {
          "name": "operatorData",
          "type": "bytes"
        }
      ],
      "name": "tokensReceived",
      "outputs": [],
      "payable": false,
      "stateMutability": "nonpayable",
      "type": "function"
    },
    {
      "constant": true,
      "inputs": [
        {
          "name": "contributor",
          "type": "address"
        }
      ],
      "name": "contribution",
      "outputs": [
        {
          "name": "",
          "type": "uint256"
        }
      ],
      "payable": false,
      "stateMutability": "view",
      "type": "function"
    },
    {
      "constant": false,
      "inputs": [
        {
          "name": "exercisor",
          "type": "address"
        },
        {
          "name": "amount",
          "type": "uint256"
        }
      ],
      "name": "exerciseOption",
      "outputs": [
        {
          "name": "success",
          "type": "bool"
        }
      ],
      "payable": false,
      "stateMutability": "nonpayable",
      "type": "function"
    },
    {
      "constant": false,
      "inputs": [
        {
          "name": "amount",
          "type": "uint256"
        }
      ],
      "name": "writeOption",
      "outputs": [
        {
          "name": "success",
          "type": "bool"
        }
      ],
      "payable": true,
      "stateMutability": "payable",
      "type": "function"
    },
    {
      "constant": false,
      "inputs": [],
      "name": "claimContribution",
      "outputs": [
        {
          "name": "success",
          "type": "bool"
        }
      ],
      "payable": false,
      "stateMutability": "nonpayable",
      "type": "function"
    },
    {
      "constant": false,
      "inputs": [],
      "name": "deleteContract",
      "outputs": [],
      "payable": false,
      "stateMutability": "nonpayable",
      "type": "function"
    }
  ],
  "bytecode": "0x6080604052731820a4b7618bde71dce8cdc73aab6c95905fad24600a60006101000a81548173ffffffffffffffffffffffffffffffffffffffff021916908373ffffffffffffffffffffffffffffffffffffffff16021790555060405162002a6c38038062002a6c833981018060405260808110156200007e57600080fd5b8101908080519060200190929190805190602001909291908051640100000000811115620000ab57600080fd5b82810190506020810184811115620000c257600080fd5b8151856001820283011164010000000082111715620000e057600080fd5b50509291906020018051640100000000811115620000fd57600080fd5b828101905060208101848111156200011457600080fd5b81518560018202830111640100000000821117156200013257600080fd5b505092919050505081816012826003908051906020019062000156929190620002ee565b5081600490805190602001906200016f929190620002ee565b5080600560006101000a81548160ff021916908360ff1602179055505050508360068190555082600781905550600a60009054906101000a900473ffffffffffffffffffffffffffffffffffffffff1673ffffffffffffffffffffffffffffffffffffffff166329965a1d3060405180807f455243373737546f6b656e73526563697069656e74000000000000000000000081525060150190506040518091039020306040518463ffffffff167c0100000000000000000000000000000000000000000000000000000000028152600401808473ffffffffffffffffffffffffffffffffffffffff1673ffffffffffffffffffffffffffffffffffffffff1681526020018381526020018273ffffffffffffffffffffffffffffffffffffffff1673ffffffffffffffffffffffffffffffffffffffff1681526020019350505050600060405180830381600087803b158015620002cb57600080fd5b505af1158015620002e0573d6000803e3d6000fd5b50505050505050506200039d565b828054600181600116156101000203166002900490600052602060002090601f016020900481019282601f106200033157805160ff191683800117855562000362565b8280016001018555821562000362579182015b828111156200036157825182559160200191906001019062000344565b5b50905062000371919062000375565b5090565b6200039a91905b80821115620003965760008160009055506001016200037c565b5090565b90565b6126bf80620003ad6000396000f3fe6080604052600436106100f0576000357c0100000000000000000000000000000000000000000000000000000000900463ffffffff16806223de29146100f55780630114a6901461023a57806306fdde0314610269578063095ea7b3146102f957806318160ddd1461036c57806323b872dd14610397578063313ce5671461042a578063395093511461045b5780635a58cd4c146104ce57806367842b82146104e557806370a0823114610558578063882714f4146105bd57806395d89b4114610603578063a457c2d714610693578063a9059cbb14610706578063dd62ed3e14610779578063e2dc4310146107fe575b600080fd5b34801561010157600080fd5b50610238600480360360c081101561011857600080fd5b81019080803573ffffffffffffffffffffffffffffffffffffffff169060200190929190803573ffffffffffffffffffffffffffffffffffffffff169060200190929190803573ffffffffffffffffffffffffffffffffffffffff169060200190929190803590602001909291908035906020019064010000000081111561019f57600080fd5b8201836020820111156101b157600080fd5b803590602001918460018302840111640100000000831117156101d357600080fd5b9091929391929390803590602001906401000000008111156101f457600080fd5b82018360208201111561020657600080fd5b8035906020019184600183028401116401000000008311171561022857600080fd5b9091929391929390505050610863565b005b34801561024657600080fd5b5061024f610924565b604051808215151515815260200191505060405180910390f35b34801561027557600080fd5b5061027e610e2f565b6040518080602001828103825283818151815260200191508051906020019080838360005b838110156102be5780820151818401526020810190506102a3565b50505050905090810190601f1680156102eb5780820380516001836020036101000a031916815260200191505b509250505060405180910390f35b34801561030557600080fd5b506103526004803603604081101561031c57600080fd5b81019080803573ffffffffffffffffffffffffffffffffffffffff16906020019092919080359060200190929190505050610ed1565b604051808215151515815260200191505060405180910390f35b34801561037857600080fd5b50610381610ee8565b6040518082815260200191505060405180910390f35b3480156103a357600080fd5b50610410600480360360608110156103ba57600080fd5b81019080803573ffffffffffffffffffffffffffffffffffffffff169060200190929190803573ffffffffffffffffffffffffffffffffffffffff16906020019092919080359060200190929190505050610ef2565b604051808215151515815260200191505060405180910390f35b34801561043657600080fd5b5061043f610fa3565b604051808260ff1660ff16815260200191505060405180910390f35b34801561046757600080fd5b506104b46004803603604081101561047e57600080fd5b81019080803573ffffffffffffffffffffffffffffffffffffffff16906020019092919080359060200190929190505050610fba565b604051808215151515815260200191505060405180910390f35b3480156104da57600080fd5b506104e361105f565b005b3480156104f157600080fd5b5061053e6004803603604081101561050857600080fd5b81019080803573ffffffffffffffffffffffffffffffffffffffff16906020019092919080359060200190929190505050611211565b604051808215151515815260200191505060405180910390f35b34801561056457600080fd5b506105a76004803603602081101561057b57600080fd5b81019080803573ffffffffffffffffffffffffffffffffffffffff16906020019092919050505061160a565b6040518082815260200191505060405180910390f35b6105e9600480360360208110156105d357600080fd5b8101908080359060200190929190505050611652565b604051808215151515815260200191505060405180910390f35b34801561060f57600080fd5b506106186118a9565b6040518080602001828103825283818151815260200191508051906020019080838360005b8381101561065857808201518184015260208101905061063d565b50505050905090810190601f1680156106855780820380516001836020036101000a031916815260200191505b509250505060405180910390f35b34801561069f57600080fd5b506106ec600480360360408110156106b657600080fd5b81019080803573ffffffffffffffffffffffffffffffffffffffff1690602001909291908035906020019092919050505061194b565b604051808215151515815260200191505060405180910390f35b34801561071257600080fd5b5061075f6004803603604081101561072957600080fd5b81019080803573ffffffffffffffffffffffffffffffffffffffff169060200190929190803590602001909291905050506119f0565b604051808215151515815260200191505060405180910390f35b34801561078557600080fd5b506107e86004803603604081101561079c57600080fd5b81019080803573ffffffffffffffffffffffffffffffffffffffff169060200190929190803573ffffffffffffffffffffffffffffffffffffffff169060200190929190505050611a07565b6040518082815260200191505060405180910390f35b34801561080a57600080fd5b5061084d6004803603602081101561082157600080fd5b81019080803573ffffffffffffffffffffffffffffffffffffffff169060200190929190505050611a8e565b6040518082815260200191505060405180910390f35b73eb770b1883dcce11781649e8c4f1ac5f4b40c97873ffffffffffffffffffffffffffffffffffffffff163373ffffffffffffffffffffffffffffffffffffffff1614151561091a576040517f08c379a000000000000000000000000000000000000000000000000000000000815260040180806020018281038252600d8152602001807f496e76616c696420746f6b656e0000000000000000000000000000000000000081525060200191505060405180910390fd5b5050505050505050565b60006006544211151561099f576040517f08c379a00000000000000000000000000000000000000000000000000000000081526004018080602001828103825260208152602001807f4f7074696f6e20636f6e747261637420686173206e6f7420657870697265642e81525060200191505060405180910390fd5b6000600860003373ffffffffffffffffffffffffffffffffffffffff1673ffffffffffffffffffffffffffffffffffffffff16815260200190815260200160002054111515610a56576040517f08c379a00000000000000000000000000000000000000000000000000000000081526004018080602001828103825260158152602001807f4e6f20636f6e747269627574696f6e20666f756e64000000000000000000000081525060200191505060405180910390fd5b60003073ffffffffffffffffffffffffffffffffffffffff163190506000610ac6600860003373ffffffffffffffffffffffffffffffffffffffff1673ffffffffffffffffffffffffffffffffffffffff1681526020019081526020016000205483611ad790919063ffffffff16565b90506000610adf60095483611ba490919063ffffffff16565b9050600072d811b7d33ceccfcb7435f14ccc274a31ce7f5d73ffffffffffffffffffffffffffffffffffffffff166370a08231306040518263ffffffff167c0100000000000000000000000000000000000000000000000000000000028152600401808273ffffffffffffffffffffffffffffffffffffffff1673ffffffffffffffffffffffffffffffffffffffff16815260200191505060206040518083038186803b158015610b8f57600080fd5b505afa158015610ba3573d6000803e3d6000fd5b505050506040513d6020811015610bb957600080fd5b810190808051906020019092919050505090506000610c20600860003373ffffffffffffffffffffffffffffffffffffffff1673ffffffffffffffffffffffffffffffffffffffff1681526020019081526020016000205483611ad790919063ffffffff16565b90506000610c3960095483611ba490919063ffffffff16565b9050610c8f600860003373ffffffffffffffffffffffffffffffffffffffff1673ffffffffffffffffffffffffffffffffffffffff16815260200190815260200160002054600954611c3790919063ffffffff16565b506000600860003373ffffffffffffffffffffffffffffffffffffffff1673ffffffffffffffffffffffffffffffffffffffff168152602001908152602001600020819055506000811115610dd15772d811b7d33ceccfcb7435f14ccc274a31ce7f5d73ffffffffffffffffffffffffffffffffffffffff1663a9059cbb33836040518363ffffffff167c0100000000000000000000000000000000000000000000000000000000028152600401808373ffffffffffffffffffffffffffffffffffffffff1673ffffffffffffffffffffffffffffffffffffffff16815260200182815260200192505050602060405180830381600087803b158015610d9457600080fd5b505af1158015610da8573d6000803e3d6000fd5b505050506040513d6020811015610dbe57600080fd5b8101908080519060200190929190505050505b6000841115610e22573373ffffffffffffffffffffffffffffffffffffffff166108fc859081150290604051600060405180830381858888f19350505050158015610e20573d6000803e3d6000fd5b505b6001965050505050505090565b606060038054600181600116156101000203166002900480601f016020809104026020016040519081016040528092919081815260200182805460018160011615610100020316600290048015610ec75780601f10610e9c57610100808354040283529160200191610ec7565b820191906000526020600020905b815481529060010190602001808311610eaa57829003601f168201915b5050505050905090565b6000610ede338484611cc2565b6001905092915050565b6000600254905090565b6000610eff848484611f43565b610f988433610f9385600160008a73ffffffffffffffffffffffffffffffffffffffff1673ffffffffffffffffffffffffffffffffffffffff16815260200190815260200160002060003373ffffffffffffffffffffffffffffffffffffffff1673ffffffffffffffffffffffffffffffffffffffff16815260200190815260200160002054611c3790919063ffffffff16565b611cc2565b600190509392505050565b6000600560009054906101000a900460ff16905090565b6000611055338461105085600160003373ffffffffffffffffffffffffffffffffffffffff1673ffffffffffffffffffffffffffffffffffffffff16815260200190815260200160002060008973ffffffffffffffffffffffffffffffffffffffff1673ffffffffffffffffffffffffffffffffffffffff1681526020019081526020016000205461226990919063ffffffff16565b611cc2565b6001905092915050565b600654421115156110d8576040517f08c379a00000000000000000000000000000000000000000000000000000000081526004018080602001828103825260208152602001807f4f7074696f6e20636f6e747261637420686173206e6f7420657870697265642e81525060200191505060405180910390fd5b60003073ffffffffffffffffffffffffffffffffffffffff16319050600072d811b7d33ceccfcb7435f14ccc274a31ce7f5d73ffffffffffffffffffffffffffffffffffffffff166370a08231306040518263ffffffff167c0100000000000000000000000000000000000000000000000000000000028152600401808273ffffffffffffffffffffffffffffffffffffffff1673ffffffffffffffffffffffffffffffffffffffff16815260200191505060206040518083038186803b1580156111a257600080fd5b505afa1580156111b6573d6000803e3d6000fd5b505050506040513d60208110156111cc57600080fd5b810190808051906020019092919050505090506000821480156111ef5750600081145b1561120d573373ffffffffffffffffffffffffffffffffffffffff16ff5b5050565b6000600654421115151561128d576040517f08c379a000000000000000000000000000000000000000000000000000000000815260040180806020018281038252601c8152602001807f4f7074696f6e20636f6e74726163742068617320657870697265642e0000000081525060200191505060405180910390fd5b3373ffffffffffffffffffffffffffffffffffffffff168373ffffffffffffffffffffffffffffffffffffffff1614151561134457816112cd8433611a07565b10151515611343576040517f08c379a00000000000000000000000000000000000000000000000000000000081526004018080602001828103825260158152602001807f556e617574686f72697a6564206578657263697365000000000000000000000081525060200191505060405180910390fd5b5b8161134e8461160a565b101515156113c4576040517f08c379a000000000000000000000000000000000000000000000000000000000815260040180806020018281038252601e8152602001807f4e6f7420656e6f756768206f7074696f6e20746f6b656e73206f776e6564000081525060200191505060405180910390fd5b6113ce83836122f3565b72d811b7d33ceccfcb7435f14ccc274a31ce7f5d73ffffffffffffffffffffffffffffffffffffffff166323b872dd843060075486026040518463ffffffff167c0100000000000000000000000000000000000000000000000000000000028152600401808473ffffffffffffffffffffffffffffffffffffffff1673ffffffffffffffffffffffffffffffffffffffff1681526020018373ffffffffffffffffffffffffffffffffffffffff1673ffffffffffffffffffffffffffffffffffffffff1681526020018281526020019350505050602060405180830381600087803b1580156114bc57600080fd5b505af11580156114d0573d6000803e3d6000fd5b505050506040513d60208110156114e657600080fd5b8101908080519060200190929190505050151561156b576040517f08c379a00000000000000000000000000000000000000000000000000000000081526004018080602001828103825260198152602001807f444149207472616e7366657220756e7375636365737366756c0000000000000081525060200191505060405180910390fd5b8273ffffffffffffffffffffffffffffffffffffffff166108fc839081150290604051600060405180830381858888f193505050501580156115b1573d6000803e3d6000fd5b508273ffffffffffffffffffffffffffffffffffffffff167f8ddc97895f60c450c0b09eaeadbc42f8973b77f9540fe465b91939670ee4807b836040518082815260200191505060405180910390a26001905092915050565b60008060008373ffffffffffffffffffffffffffffffffffffffff1673ffffffffffffffffffffffffffffffffffffffff168152602001908152602001600020549050919050565b600073eb770b1883dcce11781649e8c4f1ac5f4b40c97873ffffffffffffffffffffffffffffffffffffffff166323b872dd3330856040518463ffffffff167c0100000000000000000000000000000000000000000000000000000000028152600401808473ffffffffffffffffffffffffffffffffffffffff1673ffffffffffffffffffffffffffffffffffffffff1681526020018373ffffffffffffffffffffffffffffffffffffffff1673ffffffffffffffffffffffffffffffffffffffff1681526020018281526020019350505050602060405180830381600087803b15801561173f57600080fd5b505af1158015611753573d6000803e3d6000fd5b505050506040513d602081101561176957600080fd5b810190808051906020019092919050505015156117ee576040517f08c379a000000000000000000000000000000000000000000000000000000000815260040180806020018281038252601a8152602001807f70425443207472616e7366657220756e7375636365737366756c00000000000081525060200191505060405180910390fd5b81600860003373ffffffffffffffffffffffffffffffffffffffff1673ffffffffffffffffffffffffffffffffffffffff168152602001908152602001600020819055506118478260095461226990919063ffffffff16565b5061185233836124d6565b3373ffffffffffffffffffffffffffffffffffffffff167fecfcecf9c6cf434c1f909baa2a7d4ed561b2612dc9520fcc0e17934e13430557346040518082815260200191505060405180910390a260019050919050565b606060048054600181600116156101000203166002900480601f0160208091040260200160405190810160405280929190818152602001828054600181600116156101000203166002900480156119415780601f1061191657610100808354040283529160200191611941565b820191906000526020600020905b81548152906001019060200180831161192457829003601f168201915b5050505050905090565b60006119e633846119e185600160003373ffffffffffffffffffffffffffffffffffffffff1673ffffffffffffffffffffffffffffffffffffffff16815260200190815260200160002060008973ffffffffffffffffffffffffffffffffffffffff1673ffffffffffffffffffffffffffffffffffffffff16815260200190815260200160002054611c3790919063ffffffff16565b611cc2565b6001905092915050565b60006119fd338484611f43565b6001905092915050565b6000600160008473ffffffffffffffffffffffffffffffffffffffff1673ffffffffffffffffffffffffffffffffffffffff16815260200190815260200160002060008373ffffffffffffffffffffffffffffffffffffffff1673ffffffffffffffffffffffffffffffffffffffff16815260200190815260200160002054905092915050565b6000600860008373ffffffffffffffffffffffffffffffffffffffff1673ffffffffffffffffffffffffffffffffffffffff168152602001908152602001600020549050919050565b600080831415611aea5760009050611b9e565b60008284029050828482811515611afd57fe5b04141515611b99576040517f08c379a00000000000000000000000000000000000000000000000000000000081526004018080602001828103825260218152602001807f536166654d6174683a206d756c7469706c69636174696f6e206f766572666c6f81526020017f770000000000000000000000000000000000000000000000000000000000000081525060400191505060405180910390fd5b809150505b92915050565b60008082111515611c1d576040517f08c379a000000000000000000000000000000000000000000000000000000000815260040180806020018281038252601a8152602001807f536166654d6174683a206469766973696f6e206279207a65726f00000000000081525060200191505060405180910390fd5b60008284811515611c2a57fe5b0490508091505092915050565b6000828211151515611cb1576040517f08c379a000000000000000000000000000000000000000000000000000000000815260040180806020018281038252601e8152602001807f536166654d6174683a207375627472616374696f6e206f766572666c6f77000081525060200191505060405180910390fd5b600082840390508091505092915050565b600073ffffffffffffffffffffffffffffffffffffffff168373ffffffffffffffffffffffffffffffffffffffff1614151515611d8d576040517f08c379a00000000000000000000000000000000000000000000000000000000081526004018080602001828103825260248152602001807f45524332303a20617070726f76652066726f6d20746865207a65726f2061646481526020017f726573730000000000000000000000000000000000000000000000000000000081525060400191505060405180910390fd5b600073ffffffffffffffffffffffffffffffffffffffff168273ffffffffffffffffffffffffffffffffffffffff1614151515611e58576040517f08c379a00000000000000000000000000000000000000000000000000000000081526004018080602001828103825260228152602001807f45524332303a20617070726f766520746f20746865207a65726f20616464726581526020017f737300000000000000000000000000000000000000000000000000000000000081525060400191505060405180910390fd5b80600160008573ffffffffffffffffffffffffffffffffffffffff1673ffffffffffffffffffffffffffffffffffffffff16815260200190815260200160002060008473ffffffffffffffffffffffffffffffffffffffff1673ffffffffffffffffffffffffffffffffffffffff168152602001908152602001600020819055508173ffffffffffffffffffffffffffffffffffffffff168373ffffffffffffffffffffffffffffffffffffffff167f8c5be1e5ebec7d5bd14f71427d1e84f3dd0314c0f7b2291e5b200ac8c7c3b925836040518082815260200191505060405180910390a3505050565b600073ffffffffffffffffffffffffffffffffffffffff168373ffffffffffffffffffffffffffffffffffffffff161415151561200e576040517f08c379a00000000000000000000000000000000000000000000000000000000081526004018080602001828103825260258152602001807f45524332303a207472616e736665722066726f6d20746865207a65726f20616481526020017f647265737300000000000000000000000000000000000000000000000000000081525060400191505060405180910390fd5b600073ffffffffffffffffffffffffffffffffffffffff168273ffffffffffffffffffffffffffffffffffffffff16141515156120d9576040517f08c379a00000000000000000000000000000000000000000000000000000000081526004018080602001828103825260238152602001807f45524332303a207472616e7366657220746f20746865207a65726f206164647281526020017f657373000000000000000000000000000000000000000000000000000000000081525060400191505060405180910390fd5b61212a816000808673ffffffffffffffffffffffffffffffffffffffff1673ffffffffffffffffffffffffffffffffffffffff16815260200190815260200160002054611c3790919063ffffffff16565b6000808573ffffffffffffffffffffffffffffffffffffffff1673ffffffffffffffffffffffffffffffffffffffff168152602001908152602001600020819055506121bd816000808573ffffffffffffffffffffffffffffffffffffffff1673ffffffffffffffffffffffffffffffffffffffff1681526020019081526020016000205461226990919063ffffffff16565b6000808473ffffffffffffffffffffffffffffffffffffffff1673ffffffffffffffffffffffffffffffffffffffff168152602001908152602001600020819055508173ffffffffffffffffffffffffffffffffffffffff168373ffffffffffffffffffffffffffffffffffffffff167fddf252ad1be2c89b69c2b068fc378daa952ba7f163c4a11628f55a4df523b3ef836040518082815260200191505060405180910390a3505050565b60008082840190508381101515156122e9576040517f08c379a000000000000000000000000000000000000000000000000000000000815260040180806020018281038252601b8152602001807f536166654d6174683a206164646974696f6e206f766572666c6f77000000000081525060200191505060405180910390fd5b8091505092915050565b600073ffffffffffffffffffffffffffffffffffffffff168273ffffffffffffffffffffffffffffffffffffffff16141515156123be576040517f08c379a00000000000000000000000000000000000000000000000000000000081526004018080602001828103825260218152602001807f45524332303a206275726e2066726f6d20746865207a65726f2061646472657381526020017f730000000000000000000000000000000000000000000000000000000000000081525060400191505060405180910390fd5b6123d381600254611c3790919063ffffffff16565b60028190555061242a816000808573ffffffffffffffffffffffffffffffffffffffff1673ffffffffffffffffffffffffffffffffffffffff16815260200190815260200160002054611c3790919063ffffffff16565b6000808473ffffffffffffffffffffffffffffffffffffffff1673ffffffffffffffffffffffffffffffffffffffff16815260200190815260200160002081905550600073ffffffffffffffffffffffffffffffffffffffff168273ffffffffffffffffffffffffffffffffffffffff167fddf252ad1be2c89b69c2b068fc378daa952ba7f163c4a11628f55a4df523b3ef836040518082815260200191505060405180910390a35050565b600073ffffffffffffffffffffffffffffffffffffffff168273ffffffffffffffffffffffffffffffffffffffff161415151561257b576040517f08c379a000000000000000000000000000000000000000000000000000000000815260040180806020018281038252601f8152602001807f45524332303a206d696e7420746f20746865207a65726f20616464726573730081525060200191505060405180910390fd5b6125908160025461226990919063ffffffff16565b6002819055506125e7816000808573ffffffffffffffffffffffffffffffffffffffff1673ffffffffffffffffffffffffffffffffffffffff1681526020019081526020016000205461226990919063ffffffff16565b6000808473ffffffffffffffffffffffffffffffffffffffff1673ffffffffffffffffffffffffffffffffffffffff168152602001908152602001600020819055508173ffffffffffffffffffffffffffffffffffffffff16600073ffffffffffffffffffffffffffffffffffffffff167fddf252ad1be2c89b69c2b068fc378daa952ba7f163c4a11628f55a4df523b3ef836040518082815260200191505060405180910390a3505056fea165627a7a7230582093259176442181f261d89b4c8fef2203bf37e5890c75c3566f9a55f845f6b2560029",
  "source": "//pragma solidity >=0.6.0 <0.7.0;\npragma solidity ^0.5.0;\n\nimport \"../node_modules/openzeppelin-solidity/contracts/token/ERC20/ERC20.sol\";\nimport \"../node_modules/openzeppelin-solidity/contracts/token/ERC20/ERC20Detailed.sol\";\nimport \"../node_modules/openzeppelin-solidity/contracts/math/SafeMath.sol\";\n\nimport \"../node_modules/openzeppelin-solidity/contracts/token/ERC777/ERC777.sol\";\nimport \"../node_modules/openzeppelin-solidity/contracts/token/ERC777/IERC777.sol\";\nimport \"../node_modules/openzeppelin-solidity/contracts/introspection/IERC1820Registry.sol\";\nimport \"../node_modules/openzeppelin-solidity/contracts/token/ERC777/IERC777Recipient.sol\";\n//import \"@nomiclabs/buidler/console.sol\";\n\ncontract ETHCallOption is ERC20, ERC20Detailed, IERC777Recipient {\n    using SafeMath for uint256;\n    \n    uint256 private _expiration_timestamp;\n    uint256 private _strike;\n    \n    mapping(address => uint) private _contributions;\n    uint256 private _total_contribution;\n    \n    ERC20 constant private DAI_CONTRACT = ERC20(0x00D811B7d33cECCFcb7435F14cCC274a31CE7F5d);\n    ERC777 constant private PBTC_CONTRACT = ERC777(0xEB770B1883Dcce11781649E8c4F1ac5F4B40C978);\n    \n    event OptionExercised(address indexed owner, uint256 amount);\n    event OptionWrote(address indexed writer, uint256 amount);\n    //event ReceivedPBTC(address indexed writer, uint256 amount);\n    //event ReceivedPBTC(operator, from, to, amount, userData, operatorData);\n\n    IERC1820Registry private _erc1820 = IERC1820Registry(0x1820a4B7618BdE71Dce8cdc73aAB6C95905faD24);\n    bytes32 constant private TOKENS_RECIPIENT_INTERFACE_HASH = keccak256(\"ERC777TokensRecipient\");\n\n    constructor(uint256 expiration_timestamp, uint256 strike, string memory name, string memory symbol)\n        ERC20Detailed(name, symbol, 18)\n        public\n        payable\n    {\n        _expiration_timestamp = expiration_timestamp;\n        _strike = strike;\n        _erc1820.setInterfaceImplementer(address(this), TOKENS_RECIPIENT_INTERFACE_HASH, address(this));\n    }\n\nfunction tokensReceived(\n        address operator,\n        address from,\n        address to,\n        uint256 amount,\n        bytes calldata userData,\n        bytes calldata operatorData\n    ) external {\n        require(msg.sender == address(PBTC_CONTRACT), \"Invalid token\");\n\n        // do stuff\n        //emit ReceivedPBTC(operator, from, to, amount, userData, operatorData);\n    }\n    \n    function contribution(address contributor) public view returns (uint256) {\n        return _contributions[contributor];\n    }\n    \n    modifier beforeExpiration() {\n        require(block.timestamp <= _expiration_timestamp, \"Option contract has expired.\"); // <=\n        _;\n    }\n\n    function exerciseOption(address payable exercisor, uint256 amount) public beforeExpiration returns (bool success) {\n        if(exercisor != msg.sender){\n            require(allowance(exercisor, msg.sender) >= amount, \"Unauthorized exercise\");\n        }\n        require(balanceOf(exercisor) >= amount, \"Not enough option tokens owned\");\n        _burn(exercisor, amount);\n        require(DAI_CONTRACT.transferFrom(exercisor, address(this), amount * _strike), \"DAI transfer unsuccessful\");\n        exercisor.transfer(amount);\n        emit OptionExercised(exercisor, amount);\n        return true;\n    }\n    \n    //Just realized msg.sender is going to be the pBTC contract address and not the actual sender address...Oops!\n    function writeOption(uint256 amount) public payable returns (bool success) {\n        require(PBTC_CONTRACT.transferFrom(msg.sender, address(this), amount), \"pBTC transfer unsuccessful\");\n        _contributions[msg.sender] = amount;\n        _total_contribution.add(amount);\n        _mint(msg.sender, amount);\n        emit OptionWrote(msg.sender, msg.value);\n        return true;\n    }\n    \n    // ETH as collateral version: \n    // function writeOption() public payable beforeExpiration returns (bool success) {\n    //     require(msg.value > 0, \"Must send eth to write option\");\n    //     _contributions[msg.sender] = msg.value;\n    //     _total_contribution.add(msg.value);\n    //     _mint(msg.sender, msg.value);\n    //     emit OptionWrote(msg.sender, msg.value);\n    //     //console.log(msg.value, msg.sender);\n    //     return true;\n    // }\n    \n    modifier afterExpiration() {\n        require(block.timestamp > _expiration_timestamp, \"Option contract has not expired.\"); // >\n        _;\n    }\n    \n    function claimContribution() public afterExpiration returns (bool success) {\n\n        require(_contributions[msg.sender] > 0, \"No contribution found\");\n        \n        uint256 total_balance_wei = address(this).balance;\n        uint256 claimer_proportion_wei_num = total_balance_wei.mul(_contributions[msg.sender]);\n        uint256 claimer_proportion_wei = claimer_proportion_wei_num.div(_total_contribution);\n\n        uint256 total_balance_dai = DAI_CONTRACT.balanceOf(address(this));\n        uint256 claimer_proportion_dai_num = total_balance_dai.mul(_contributions[msg.sender]);\n        uint256 claimer_proportion_dai = claimer_proportion_dai_num.div(_total_contribution);\n\n        _total_contribution.sub(_contributions[msg.sender]);\n        _contributions[msg.sender] = 0;\n\n        if(claimer_proportion_dai > 0){\n            DAI_CONTRACT.transfer(msg.sender, claimer_proportion_dai);\n        }\n        \n        if(claimer_proportion_wei > 0){\n            msg.sender.transfer(claimer_proportion_wei);\n        }\n        \n        return true;\n    }\n    \n    function deleteContract() public afterExpiration {\n\n        uint256 total_balance_eth = address(this).balance;\n        uint256 total_balance_dai = DAI_CONTRACT.balanceOf(address(this));\n        \n        if(total_balance_eth == 0 && total_balance_dai == 0){\n            selfdestruct(msg.sender);\n        }\n    }\n\n}\n",
  "sourcePath": "C:\\Users\\datta\\Desktop\\hackmoney\\ptokens_option_contracts_frontend\\contracts\\ETHCallOption.sol",
  "compiler": {
    "name": "solc",
    "version": "0.5.0+commit.1d4f565a.Emscripten.clang"
  },
  "schemaVersion": "3.1.0",
  "updatedAt": "2020-05-24T11:25:35.901Z",
  "devdoc": {
    "methods": {
      "allowance(address,address)": {
        "details": "See `IERC20.allowance`."
      },
      "approve(address,uint256)": {
        "details": "See `IERC20.approve`.     * Requirements:     * - `spender` cannot be the zero address."
      },
      "balanceOf(address)": {
        "details": "See `IERC20.balanceOf`."
      },
      "decimals()": {
        "details": "Returns the number of decimals used to get its user representation. For example, if `decimals` equals `2`, a balance of `505` tokens should be displayed to a user as `5,05` (`505 / 10 ** 2`).     * Tokens usually opt for a value of 18, imitating the relationship between Ether and Wei.     * > Note that this information is only used for _display_ purposes: it in no way affects any of the arithmetic of the contract, including `IERC20.balanceOf` and `IERC20.transfer`."
      },
      "decreaseAllowance(address,uint256)": {
        "details": "Atomically decreases the allowance granted to `spender` by the caller.     * This is an alternative to `approve` that can be used as a mitigation for problems described in `IERC20.approve`.     * Emits an `Approval` event indicating the updated allowance.     * Requirements:     * - `spender` cannot be the zero address. - `spender` must have allowance for the caller of at least `subtractedValue`."
      },
      "increaseAllowance(address,uint256)": {
        "details": "Atomically increases the allowance granted to `spender` by the caller.     * This is an alternative to `approve` that can be used as a mitigation for problems described in `IERC20.approve`.     * Emits an `Approval` event indicating the updated allowance.     * Requirements:     * - `spender` cannot be the zero address."
      },
      "name()": {
        "details": "Returns the name of the token."
      },
      "symbol()": {
        "details": "Returns the symbol of the token, usually a shorter version of the name."
      },
      "totalSupply()": {
        "details": "See `IERC20.totalSupply`."
      },
      "transfer(address,uint256)": {
        "details": "See `IERC20.transfer`.     * Requirements:     * - `recipient` cannot be the zero address. - the caller must have a balance of at least `amount`."
      },
      "transferFrom(address,address,uint256)": {
        "details": "See `IERC20.transferFrom`.     * Emits an `Approval` event indicating the updated allowance. This is not required by the EIP. See the note at the beginning of `ERC20`;     * Requirements: - `sender` and `recipient` cannot be the zero address. - `sender` must have a balance of at least `value`. - the caller must have allowance for `sender`'s tokens of at least `amount`."
      }
    }
  },
  "userdoc": {
    "methods": {}
  }
}