{
  "contractName": "ETHOptionsFactory",
  "abi": [
    {
      "anonymous": false,
      "inputs": [
        {
          "indexed": true,
          "name": "contract_address",
          "type": "address"
        },
        {
          "indexed": false,
          "name": "expiration_timestamp",
          "type": "uint256"
        },
        {
          "indexed": false,
          "name": "strike",
          "type": "uint256"
        }
      ],
      "name": "CallOptionContractCreated",
      "type": "event"
    },
    {
      "anonymous": false,
      "inputs": [
        {
          "indexed": true,
          "name": "contract_address",
          "type": "address"
        },
        {
          "indexed": false,
          "name": "expiration_timestamp",
          "type": "uint256"
        },
        {
          "indexed": false,
          "name": "strike",
          "type": "uint256"
        }
      ],
      "name": "PutOptionContractCreated",
      "type": "event"
    },
    {
      "constant": true,
      "inputs": [
        {
          "name": "expiration_timestamp",
          "type": "uint256"
        },
        {
          "name": "strike",
          "type": "uint256"
        }
      ],
      "name": "callOptionContract",
      "outputs": [
        {
          "name": "",
          "type": "address"
        }
      ],
      "payable": false,
      "stateMutability": "view",
      "type": "function"
    },
    {
      "constant": true,
      "inputs": [
        {
          "name": "expiration_timestamp",
          "type": "uint256"
        },
        {
          "name": "strike",
          "type": "uint256"
        }
      ],
      "name": "putOptionContract",
      "outputs": [
        {
          "name": "",
          "type": "address"
        }
      ],
      "payable": false,
      "stateMutability": "view",
      "type": "function"
    },
    {
      "constant": false,
      "inputs": [
        {
          "name": "expiration_timestamp",
          "type": "uint256"
        },
        {
          "name": "strike",
          "type": "uint256"
        }
      ],
      "name": "createCallOptionContract",
      "outputs": [
        {
          "name": "success",
          "type": "bool"
        }
      ],
      "payable": false,
      "stateMutability": "nonpayable",
      "type": "function"
    },
    {
      "constant": false,
      "inputs": [
        {
          "name": "expiration_timestamp",
          "type": "uint256"
        },
        {
          "name": "strike",
          "type": "uint256"
        }
      ],
      "name": "createPutOptionContract",
      "outputs": [
        {
          "name": "success",
          "type": "bool"
        }
      ],
      "payable": false,
      "stateMutability": "nonpayable",
      "type": "function"
    }
  ],
  "bytecode": "0x608060405234801561001057600080fd5b50615a2b806100206000396000f3fe608060405260043610610062576000357c0100000000000000000000000000000000000000000000000000000000900463ffffffff1680633c85a053146100675780639b07cec7146100ec578063eb9b484114610149578063f78dbe08146101ce575b600080fd5b34801561007357600080fd5b506100aa6004803603604081101561008a57600080fd5b81019080803590602001909291908035906020019092919050505061022b565b604051808273ffffffffffffffffffffffffffffffffffffffff1673ffffffffffffffffffffffffffffffffffffffff16815260200191505060405180910390f35b3480156100f857600080fd5b5061012f6004803603604081101561010f57600080fd5b810190808035906020019092919080359060200190929190505050610279565b604051808215151515815260200191505060405180910390f35b34801561015557600080fd5b5061018c6004803603604081101561016c57600080fd5b810190808035906020019092919080359060200190929190505050610551565b604051808273ffffffffffffffffffffffffffffffffffffffff1673ffffffffffffffffffffffffffffffffffffffff16815260200191505060405180910390f35b3480156101da57600080fd5b50610211600480360360408110156101f157600080fd5b8101908080359060200190929190803590602001909291905050506105a0565b604051808215151515815260200191505060405180910390f35b6000806000848152602001908152602001600020600083815260200190815260200160002060009054906101000a900473ffffffffffffffffffffffffffffffffffffffff16905092915050565b60004283101515156102f3576040517f08c379a00000000000000000000000000000000000000000000000000000000081526004018080602001828103825260138152602001807f496e76616c69642065787069726174696f6e2e0000000000000000000000000081525060200191505060405180910390fd5b600073ffffffffffffffffffffffffffffffffffffffff16600080858152602001908152602001600020600084815260200190815260200160002060009054906101000a900473ffffffffffffffffffffffffffffffffffffffff1673ffffffffffffffffffffffffffffffffffffffff161415156103da576040517f08c379a00000000000000000000000000000000000000000000000000000000081526004018080602001828103825260198152602001807f436f6e747261637420616c726561647920637265617465642e0000000000000081525060200191505060405180910390fd5b600083836103e661087a565b808381526020018281526020018060200180602001838103835260118152602001807f4554482043616c6c20436f6e7472616374000000000000000000000000000000815250602001838103825260078152602001807f45544843616c6c00000000000000000000000000000000000000000000000000815250602001945050505050604051809103906000f080158015610485573d6000803e3d6000fd5b509050600081905080600080878152602001908152602001600020600086815260200190815260200160002060006101000a81548173ffffffffffffffffffffffffffffffffffffffff021916908373ffffffffffffffffffffffffffffffffffffffff1602179055508073ffffffffffffffffffffffffffffffffffffffff167fdb923d4fc325c63616207b6fd276f78862c2e6f40c8b74a0ec2b6601f94b4bcb8686604051808381526020018281526020019250505060405180910390a260019250505092915050565b600060016000848152602001908152602001600020600083815260200190815260200160002060009054906101000a900473ffffffffffffffffffffffffffffffffffffffff16905092915050565b600042831015151561061a576040517f08c379a00000000000000000000000000000000000000000000000000000000081526004018080602001828103825260138152602001807f496e76616c69642065787069726174696f6e2e0000000000000000000000000081525060200191505060405180910390fd5b600073ffffffffffffffffffffffffffffffffffffffff1660016000858152602001908152602001600020600084815260200190815260200160002060009054906101000a900473ffffffffffffffffffffffffffffffffffffffff1673ffffffffffffffffffffffffffffffffffffffff16141515610702576040517f08c379a00000000000000000000000000000000000000000000000000000000081526004018080602001828103825260198152602001807f436f6e747261637420616c726561647920637265617465642e0000000000000081525060200191505060405180910390fd5b6000838361070e61088a565b808381526020018281526020018060200180602001838103835260108152602001807f4554482050757420436f6e747261637400000000000000000000000000000000815250602001838103825260068152602001807f4554485075740000000000000000000000000000000000000000000000000000815250602001945050505050604051809103906000f0801580156107ad573d6000803e3d6000fd5b50905060008190508060016000878152602001908152602001600020600086815260200190815260200160002060006101000a81548173ffffffffffffffffffffffffffffffffffffffff021916908373ffffffffffffffffffffffffffffffffffffffff1602179055508073ffffffffffffffffffffffffffffffffffffffff167f8945e1366e40752d8564cc339ebbb08e5294bd9bb89328012cb8b5734404b5898686604051808381526020018281526020019250505060405180910390a260019250505092915050565b604051612a6c8061089b83390190565b6040516126f9806133078339019056fe6080604052731820a4b7618bde71dce8cdc73aab6c95905fad24600a60006101000a81548173ffffffffffffffffffffffffffffffffffffffff021916908373ffffffffffffffffffffffffffffffffffffffff16021790555060405162002a6c38038062002a6c833981018060405260808110156200007e57600080fd5b8101908080519060200190929190805190602001909291908051640100000000811115620000ab57600080fd5b82810190506020810184811115620000c257600080fd5b8151856001820283011164010000000082111715620000e057600080fd5b50509291906020018051640100000000811115620000fd57600080fd5b828101905060208101848111156200011457600080fd5b81518560018202830111640100000000821117156200013257600080fd5b505092919050505081816012826003908051906020019062000156929190620002ee565b5081600490805190602001906200016f929190620002ee565b5080600560006101000a81548160ff021916908360ff1602179055505050508360068190555082600781905550600a60009054906101000a900473ffffffffffffffffffffffffffffffffffffffff1673ffffffffffffffffffffffffffffffffffffffff166329965a1d3060405180807f455243373737546f6b656e73526563697069656e74000000000000000000000081525060150190506040518091039020306040518463ffffffff167c0100000000000000000000000000000000000000000000000000000000028152600401808473ffffffffffffffffffffffffffffffffffffffff1673ffffffffffffffffffffffffffffffffffffffff1681526020018381526020018273ffffffffffffffffffffffffffffffffffffffff1673ffffffffffffffffffffffffffffffffffffffff1681526020019350505050600060405180830381600087803b158015620002cb57600080fd5b505af1158015620002e0573d6000803e3d6000fd5b50505050505050506200039d565b828054600181600116156101000203166002900490600052602060002090601f016020900481019282601f106200033157805160ff191683800117855562000362565b8280016001018555821562000362579182015b828111156200036157825182559160200191906001019062000344565b5b50905062000371919062000375565b5090565b6200039a91905b80821115620003965760008160009055506001016200037c565b5090565b90565b6126bf80620003ad6000396000f3fe6080604052600436106100f0576000357c0100000000000000000000000000000000000000000000000000000000900463ffffffff16806223de29146100f55780630114a6901461023a57806306fdde0314610269578063095ea7b3146102f957806318160ddd1461036c57806323b872dd14610397578063313ce5671461042a578063395093511461045b5780635a58cd4c146104ce57806367842b82146104e557806370a0823114610558578063882714f4146105bd57806395d89b4114610603578063a457c2d714610693578063a9059cbb14610706578063dd62ed3e14610779578063e2dc4310146107fe575b600080fd5b34801561010157600080fd5b50610238600480360360c081101561011857600080fd5b81019080803573ffffffffffffffffffffffffffffffffffffffff169060200190929190803573ffffffffffffffffffffffffffffffffffffffff169060200190929190803573ffffffffffffffffffffffffffffffffffffffff169060200190929190803590602001909291908035906020019064010000000081111561019f57600080fd5b8201836020820111156101b157600080fd5b803590602001918460018302840111640100000000831117156101d357600080fd5b9091929391929390803590602001906401000000008111156101f457600080fd5b82018360208201111561020657600080fd5b8035906020019184600183028401116401000000008311171561022857600080fd5b9091929391929390505050610863565b005b34801561024657600080fd5b5061024f610924565b604051808215151515815260200191505060405180910390f35b34801561027557600080fd5b5061027e610e2f565b6040518080602001828103825283818151815260200191508051906020019080838360005b838110156102be5780820151818401526020810190506102a3565b50505050905090810190601f1680156102eb5780820380516001836020036101000a031916815260200191505b509250505060405180910390f35b34801561030557600080fd5b506103526004803603604081101561031c57600080fd5b81019080803573ffffffffffffffffffffffffffffffffffffffff16906020019092919080359060200190929190505050610ed1565b604051808215151515815260200191505060405180910390f35b34801561037857600080fd5b50610381610ee8565b6040518082815260200191505060405180910390f35b3480156103a357600080fd5b50610410600480360360608110156103ba57600080fd5b81019080803573ffffffffffffffffffffffffffffffffffffffff169060200190929190803573ffffffffffffffffffffffffffffffffffffffff16906020019092919080359060200190929190505050610ef2565b604051808215151515815260200191505060405180910390f35b34801561043657600080fd5b5061043f610fa3565b604051808260ff1660ff16815260200191505060405180910390f35b34801561046757600080fd5b506104b46004803603604081101561047e57600080fd5b81019080803573ffffffffffffffffffffffffffffffffffffffff16906020019092919080359060200190929190505050610fba565b604051808215151515815260200191505060405180910390f35b3480156104da57600080fd5b506104e361105f565b005b3480156104f157600080fd5b5061053e6004803603604081101561050857600080fd5b81019080803573ffffffffffffffffffffffffffffffffffffffff16906020019092919080359060200190929190505050611211565b604051808215151515815260200191505060405180910390f35b34801561056457600080fd5b506105a76004803603602081101561057b57600080fd5b81019080803573ffffffffffffffffffffffffffffffffffffffff16906020019092919050505061160a565b6040518082815260200191505060405180910390f35b6105e9600480360360208110156105d357600080fd5b8101908080359060200190929190505050611652565b604051808215151515815260200191505060405180910390f35b34801561060f57600080fd5b506106186118a9565b6040518080602001828103825283818151815260200191508051906020019080838360005b8381101561065857808201518184015260208101905061063d565b50505050905090810190601f1680156106855780820380516001836020036101000a031916815260200191505b509250505060405180910390f35b34801561069f57600080fd5b506106ec600480360360408110156106b657600080fd5b81019080803573ffffffffffffffffffffffffffffffffffffffff1690602001909291908035906020019092919050505061194b565b604051808215151515815260200191505060405180910390f35b34801561071257600080fd5b5061075f6004803603604081101561072957600080fd5b81019080803573ffffffffffffffffffffffffffffffffffffffff169060200190929190803590602001909291905050506119f0565b604051808215151515815260200191505060405180910390f35b34801561078557600080fd5b506107e86004803603604081101561079c57600080fd5b81019080803573ffffffffffffffffffffffffffffffffffffffff169060200190929190803573ffffffffffffffffffffffffffffffffffffffff169060200190929190505050611a07565b6040518082815260200191505060405180910390f35b34801561080a57600080fd5b5061084d6004803603602081101561082157600080fd5b81019080803573ffffffffffffffffffffffffffffffffffffffff169060200190929190505050611a8e565b6040518082815260200191505060405180910390f35b73eb770b1883dcce11781649e8c4f1ac5f4b40c97873ffffffffffffffffffffffffffffffffffffffff163373ffffffffffffffffffffffffffffffffffffffff1614151561091a576040517f08c379a000000000000000000000000000000000000000000000000000000000815260040180806020018281038252600d8152602001807f496e76616c696420746f6b656e0000000000000000000000000000000000000081525060200191505060405180910390fd5b5050505050505050565b60006006544211151561099f576040517f08c379a00000000000000000000000000000000000000000000000000000000081526004018080602001828103825260208152602001807f4f7074696f6e20636f6e747261637420686173206e6f7420657870697265642e81525060200191505060405180910390fd5b6000600860003373ffffffffffffffffffffffffffffffffffffffff1673ffffffffffffffffffffffffffffffffffffffff16815260200190815260200160002054111515610a56576040517f08c379a00000000000000000000000000000000000000000000000000000000081526004018080602001828103825260158152602001807f4e6f20636f6e747269627574696f6e20666f756e64000000000000000000000081525060200191505060405180910390fd5b60003073ffffffffffffffffffffffffffffffffffffffff163190506000610ac6600860003373ffffffffffffffffffffffffffffffffffffffff1673ffffffffffffffffffffffffffffffffffffffff1681526020019081526020016000205483611ad790919063ffffffff16565b90506000610adf60095483611ba490919063ffffffff16565b9050600072d811b7d33ceccfcb7435f14ccc274a31ce7f5d73ffffffffffffffffffffffffffffffffffffffff166370a08231306040518263ffffffff167c0100000000000000000000000000000000000000000000000000000000028152600401808273ffffffffffffffffffffffffffffffffffffffff1673ffffffffffffffffffffffffffffffffffffffff16815260200191505060206040518083038186803b158015610b8f57600080fd5b505afa158015610ba3573d6000803e3d6000fd5b505050506040513d6020811015610bb957600080fd5b810190808051906020019092919050505090506000610c20600860003373ffffffffffffffffffffffffffffffffffffffff1673ffffffffffffffffffffffffffffffffffffffff1681526020019081526020016000205483611ad790919063ffffffff16565b90506000610c3960095483611ba490919063ffffffff16565b9050610c8f600860003373ffffffffffffffffffffffffffffffffffffffff1673ffffffffffffffffffffffffffffffffffffffff16815260200190815260200160002054600954611c3790919063ffffffff16565b506000600860003373ffffffffffffffffffffffffffffffffffffffff1673ffffffffffffffffffffffffffffffffffffffff168152602001908152602001600020819055506000811115610dd15772d811b7d33ceccfcb7435f14ccc274a31ce7f5d73ffffffffffffffffffffffffffffffffffffffff1663a9059cbb33836040518363ffffffff167c0100000000000000000000000000000000000000000000000000000000028152600401808373ffffffffffffffffffffffffffffffffffffffff1673ffffffffffffffffffffffffffffffffffffffff16815260200182815260200192505050602060405180830381600087803b158015610d9457600080fd5b505af1158015610da8573d6000803e3d6000fd5b505050506040513d6020811015610dbe57600080fd5b8101908080519060200190929190505050505b6000841115610e22573373ffffffffffffffffffffffffffffffffffffffff166108fc859081150290604051600060405180830381858888f19350505050158015610e20573d6000803e3d6000fd5b505b6001965050505050505090565b606060038054600181600116156101000203166002900480601f016020809104026020016040519081016040528092919081815260200182805460018160011615610100020316600290048015610ec75780601f10610e9c57610100808354040283529160200191610ec7565b820191906000526020600020905b815481529060010190602001808311610eaa57829003601f168201915b5050505050905090565b6000610ede338484611cc2565b6001905092915050565b6000600254905090565b6000610eff848484611f43565b610f988433610f9385600160008a73ffffffffffffffffffffffffffffffffffffffff1673ffffffffffffffffffffffffffffffffffffffff16815260200190815260200160002060003373ffffffffffffffffffffffffffffffffffffffff1673ffffffffffffffffffffffffffffffffffffffff16815260200190815260200160002054611c3790919063ffffffff16565b611cc2565b600190509392505050565b6000600560009054906101000a900460ff16905090565b6000611055338461105085600160003373ffffffffffffffffffffffffffffffffffffffff1673ffffffffffffffffffffffffffffffffffffffff16815260200190815260200160002060008973ffffffffffffffffffffffffffffffffffffffff1673ffffffffffffffffffffffffffffffffffffffff1681526020019081526020016000205461226990919063ffffffff16565b611cc2565b6001905092915050565b600654421115156110d8576040517f08c379a00000000000000000000000000000000000000000000000000000000081526004018080602001828103825260208152602001807f4f7074696f6e20636f6e747261637420686173206e6f7420657870697265642e81525060200191505060405180910390fd5b60003073ffffffffffffffffffffffffffffffffffffffff16319050600072d811b7d33ceccfcb7435f14ccc274a31ce7f5d73ffffffffffffffffffffffffffffffffffffffff166370a08231306040518263ffffffff167c0100000000000000000000000000000000000000000000000000000000028152600401808273ffffffffffffffffffffffffffffffffffffffff1673ffffffffffffffffffffffffffffffffffffffff16815260200191505060206040518083038186803b1580156111a257600080fd5b505afa1580156111b6573d6000803e3d6000fd5b505050506040513d60208110156111cc57600080fd5b810190808051906020019092919050505090506000821480156111ef5750600081145b1561120d573373ffffffffffffffffffffffffffffffffffffffff16ff5b5050565b6000600654421115151561128d576040517f08c379a000000000000000000000000000000000000000000000000000000000815260040180806020018281038252601c8152602001807f4f7074696f6e20636f6e74726163742068617320657870697265642e0000000081525060200191505060405180910390fd5b3373ffffffffffffffffffffffffffffffffffffffff168373ffffffffffffffffffffffffffffffffffffffff1614151561134457816112cd8433611a07565b10151515611343576040517f08c379a00000000000000000000000000000000000000000000000000000000081526004018080602001828103825260158152602001807f556e617574686f72697a6564206578657263697365000000000000000000000081525060200191505060405180910390fd5b5b8161134e8461160a565b101515156113c4576040517f08c379a000000000000000000000000000000000000000000000000000000000815260040180806020018281038252601e8152602001807f4e6f7420656e6f756768206f7074696f6e20746f6b656e73206f776e6564000081525060200191505060405180910390fd5b6113ce83836122f3565b72d811b7d33ceccfcb7435f14ccc274a31ce7f5d73ffffffffffffffffffffffffffffffffffffffff166323b872dd843060075486026040518463ffffffff167c0100000000000000000000000000000000000000000000000000000000028152600401808473ffffffffffffffffffffffffffffffffffffffff1673ffffffffffffffffffffffffffffffffffffffff1681526020018373ffffffffffffffffffffffffffffffffffffffff1673ffffffffffffffffffffffffffffffffffffffff1681526020018281526020019350505050602060405180830381600087803b1580156114bc57600080fd5b505af11580156114d0573d6000803e3d6000fd5b505050506040513d60208110156114e657600080fd5b8101908080519060200190929190505050151561156b576040517f08c379a00000000000000000000000000000000000000000000000000000000081526004018080602001828103825260198152602001807f444149207472616e7366657220756e7375636365737366756c0000000000000081525060200191505060405180910390fd5b8273ffffffffffffffffffffffffffffffffffffffff166108fc839081150290604051600060405180830381858888f193505050501580156115b1573d6000803e3d6000fd5b508273ffffffffffffffffffffffffffffffffffffffff167f8ddc97895f60c450c0b09eaeadbc42f8973b77f9540fe465b91939670ee4807b836040518082815260200191505060405180910390a26001905092915050565b60008060008373ffffffffffffffffffffffffffffffffffffffff1673ffffffffffffffffffffffffffffffffffffffff168152602001908152602001600020549050919050565b600073eb770b1883dcce11781649e8c4f1ac5f4b40c97873ffffffffffffffffffffffffffffffffffffffff166323b872dd3330856040518463ffffffff167c0100000000000000000000000000000000000000000000000000000000028152600401808473ffffffffffffffffffffffffffffffffffffffff1673ffffffffffffffffffffffffffffffffffffffff1681526020018373ffffffffffffffffffffffffffffffffffffffff1673ffffffffffffffffffffffffffffffffffffffff1681526020018281526020019350505050602060405180830381600087803b15801561173f57600080fd5b505af1158015611753573d6000803e3d6000fd5b505050506040513d602081101561176957600080fd5b810190808051906020019092919050505015156117ee576040517f08c379a000000000000000000000000000000000000000000000000000000000815260040180806020018281038252601a8152602001807f70425443207472616e7366657220756e7375636365737366756c00000000000081525060200191505060405180910390fd5b81600860003373ffffffffffffffffffffffffffffffffffffffff1673ffffffffffffffffffffffffffffffffffffffff168152602001908152602001600020819055506118478260095461226990919063ffffffff16565b5061185233836124d6565b3373ffffffffffffffffffffffffffffffffffffffff167fecfcecf9c6cf434c1f909baa2a7d4ed561b2612dc9520fcc0e17934e13430557346040518082815260200191505060405180910390a260019050919050565b606060048054600181600116156101000203166002900480601f0160208091040260200160405190810160405280929190818152602001828054600181600116156101000203166002900480156119415780601f1061191657610100808354040283529160200191611941565b820191906000526020600020905b81548152906001019060200180831161192457829003601f168201915b5050505050905090565b60006119e633846119e185600160003373ffffffffffffffffffffffffffffffffffffffff1673ffffffffffffffffffffffffffffffffffffffff16815260200190815260200160002060008973ffffffffffffffffffffffffffffffffffffffff1673ffffffffffffffffffffffffffffffffffffffff16815260200190815260200160002054611c3790919063ffffffff16565b611cc2565b6001905092915050565b60006119fd338484611f43565b6001905092915050565b6000600160008473ffffffffffffffffffffffffffffffffffffffff1673ffffffffffffffffffffffffffffffffffffffff16815260200190815260200160002060008373ffffffffffffffffffffffffffffffffffffffff1673ffffffffffffffffffffffffffffffffffffffff16815260200190815260200160002054905092915050565b6000600860008373ffffffffffffffffffffffffffffffffffffffff1673ffffffffffffffffffffffffffffffffffffffff168152602001908152602001600020549050919050565b600080831415611aea5760009050611b9e565b60008284029050828482811515611afd57fe5b04141515611b99576040517f08c379a00000000000000000000000000000000000000000000000000000000081526004018080602001828103825260218152602001807f536166654d6174683a206d756c7469706c69636174696f6e206f766572666c6f81526020017f770000000000000000000000000000000000000000000000000000000000000081525060400191505060405180910390fd5b809150505b92915050565b60008082111515611c1d576040517f08c379a000000000000000000000000000000000000000000000000000000000815260040180806020018281038252601a8152602001807f536166654d6174683a206469766973696f6e206279207a65726f00000000000081525060200191505060405180910390fd5b60008284811515611c2a57fe5b0490508091505092915050565b6000828211151515611cb1576040517f08c379a000000000000000000000000000000000000000000000000000000000815260040180806020018281038252601e8152602001807f536166654d6174683a207375627472616374696f6e206f766572666c6f77000081525060200191505060405180910390fd5b600082840390508091505092915050565b600073ffffffffffffffffffffffffffffffffffffffff168373ffffffffffffffffffffffffffffffffffffffff1614151515611d8d576040517f08c379a00000000000000000000000000000000000000000000000000000000081526004018080602001828103825260248152602001807f45524332303a20617070726f76652066726f6d20746865207a65726f2061646481526020017f726573730000000000000000000000000000000000000000000000000000000081525060400191505060405180910390fd5b600073ffffffffffffffffffffffffffffffffffffffff168273ffffffffffffffffffffffffffffffffffffffff1614151515611e58576040517f08c379a00000000000000000000000000000000000000000000000000000000081526004018080602001828103825260228152602001807f45524332303a20617070726f766520746f20746865207a65726f20616464726581526020017f737300000000000000000000000000000000000000000000000000000000000081525060400191505060405180910390fd5b80600160008573ffffffffffffffffffffffffffffffffffffffff1673ffffffffffffffffffffffffffffffffffffffff16815260200190815260200160002060008473ffffffffffffffffffffffffffffffffffffffff1673ffffffffffffffffffffffffffffffffffffffff168152602001908152602001600020819055508173ffffffffffffffffffffffffffffffffffffffff168373ffffffffffffffffffffffffffffffffffffffff167f8c5be1e5ebec7d5bd14f71427d1e84f3dd0314c0f7b2291e5b200ac8c7c3b925836040518082815260200191505060405180910390a3505050565b600073ffffffffffffffffffffffffffffffffffffffff168373ffffffffffffffffffffffffffffffffffffffff161415151561200e576040517f08c379a00000000000000000000000000000000000000000000000000000000081526004018080602001828103825260258152602001807f45524332303a207472616e736665722066726f6d20746865207a65726f20616481526020017f647265737300000000000000000000000000000000000000000000000000000081525060400191505060405180910390fd5b600073ffffffffffffffffffffffffffffffffffffffff168273ffffffffffffffffffffffffffffffffffffffff16141515156120d9576040517f08c379a00000000000000000000000000000000000000000000000000000000081526004018080602001828103825260238152602001807f45524332303a207472616e7366657220746f20746865207a65726f206164647281526020017f657373000000000000000000000000000000000000000000000000000000000081525060400191505060405180910390fd5b61212a816000808673ffffffffffffffffffffffffffffffffffffffff1673ffffffffffffffffffffffffffffffffffffffff16815260200190815260200160002054611c3790919063ffffffff16565b6000808573ffffffffffffffffffffffffffffffffffffffff1673ffffffffffffffffffffffffffffffffffffffff168152602001908152602001600020819055506121bd816000808573ffffffffffffffffffffffffffffffffffffffff1673ffffffffffffffffffffffffffffffffffffffff1681526020019081526020016000205461226990919063ffffffff16565b6000808473ffffffffffffffffffffffffffffffffffffffff1673ffffffffffffffffffffffffffffffffffffffff168152602001908152602001600020819055508173ffffffffffffffffffffffffffffffffffffffff168373ffffffffffffffffffffffffffffffffffffffff167fddf252ad1be2c89b69c2b068fc378daa952ba7f163c4a11628f55a4df523b3ef836040518082815260200191505060405180910390a3505050565b60008082840190508381101515156122e9576040517f08c379a000000000000000000000000000000000000000000000000000000000815260040180806020018281038252601b8152602001807f536166654d6174683a206164646974696f6e206f766572666c6f77000000000081525060200191505060405180910390fd5b8091505092915050565b600073ffffffffffffffffffffffffffffffffffffffff168273ffffffffffffffffffffffffffffffffffffffff16141515156123be576040517f08c379a00000000000000000000000000000000000000000000000000000000081526004018080602001828103825260218152602001807f45524332303a206275726e2066726f6d20746865207a65726f2061646472657381526020017f730000000000000000000000000000000000000000000000000000000000000081525060400191505060405180910390fd5b6123d381600254611c3790919063ffffffff16565b60028190555061242a816000808573ffffffffffffffffffffffffffffffffffffffff1673ffffffffffffffffffffffffffffffffffffffff16815260200190815260200160002054611c3790919063ffffffff16565b6000808473ffffffffffffffffffffffffffffffffffffffff1673ffffffffffffffffffffffffffffffffffffffff16815260200190815260200160002081905550600073ffffffffffffffffffffffffffffffffffffffff168273ffffffffffffffffffffffffffffffffffffffff167fddf252ad1be2c89b69c2b068fc378daa952ba7f163c4a11628f55a4df523b3ef836040518082815260200191505060405180910390a35050565b600073ffffffffffffffffffffffffffffffffffffffff168273ffffffffffffffffffffffffffffffffffffffff161415151561257b576040517f08c379a000000000000000000000000000000000000000000000000000000000815260040180806020018281038252601f8152602001807f45524332303a206d696e7420746f20746865207a65726f20616464726573730081525060200191505060405180910390fd5b6125908160025461226990919063ffffffff16565b6002819055506125e7816000808573ffffffffffffffffffffffffffffffffffffffff1673ffffffffffffffffffffffffffffffffffffffff1681526020019081526020016000205461226990919063ffffffff16565b6000808473ffffffffffffffffffffffffffffffffffffffff1673ffffffffffffffffffffffffffffffffffffffff168152602001908152602001600020819055508173ffffffffffffffffffffffffffffffffffffffff16600073ffffffffffffffffffffffffffffffffffffffff167fddf252ad1be2c89b69c2b068fc378daa952ba7f163c4a11628f55a4df523b3ef836040518082815260200191505060405180910390a3505056fea165627a7a7230582093259176442181f261d89b4c8fef2203bf37e5890c75c3566f9a55f845f6b25600296080604052604051620026f9380380620026f9833981018060405260808110156200002957600080fd5b81019080805190602001909291908051906020019092919080516401000000008111156200005657600080fd5b828101905060208101848111156200006d57600080fd5b81518560018202830111640100000000821117156200008b57600080fd5b50509291906020018051640100000000811115620000a857600080fd5b82810190506020810184811115620000bf57600080fd5b8151856001820283011164010000000082111715620000dd57600080fd5b50509291905050508181601282600390805190602001906200010192919062000151565b5081600490805190602001906200011a92919062000151565b5080600560006101000a81548160ff021916908360ff16021790555050505083600681905550826007819055505050505062000200565b828054600181600116156101000203166002900490600052602060002090601f016020900481019282601f106200019457805160ff1916838001178555620001c5565b82800160010185558215620001c5579182015b82811115620001c4578251825591602001919060010190620001a7565b5b509050620001d49190620001d8565b5090565b620001fd91905b80821115620001f9576000816000905550600101620001df565b5090565b90565b6124e980620002106000396000f3fe6080604052600436106100e6576000357c0100000000000000000000000000000000000000000000000000000000900463ffffffff1680630114a690146100eb57806306fdde031461011a578063095ea7b3146101aa57806318160ddd1461021d57806323b872dd14610248578063313ce567146102db578063395093511461030c5780635a58cd4c1461037f57806367842b821461039657806370a08231146103fc578063882714f41461046157806395d89b41146104a7578063a457c2d714610537578063a9059cbb146105aa578063dd62ed3e1461061d578063e2dc4310146106a2575b600080fd5b3480156100f757600080fd5b50610100610707565b604051808215151515815260200191505060405180910390f35b34801561012657600080fd5b5061012f610c12565b6040518080602001828103825283818151815260200191508051906020019080838360005b8381101561016f578082015181840152602081019050610154565b50505050905090810190601f16801561019c5780820380516001836020036101000a031916815260200191505b509250505060405180910390f35b3480156101b657600080fd5b50610203600480360360408110156101cd57600080fd5b81019080803573ffffffffffffffffffffffffffffffffffffffff16906020019092919080359060200190929190505050610cb4565b604051808215151515815260200191505060405180910390f35b34801561022957600080fd5b50610232610ccb565b6040518082815260200191505060405180910390f35b34801561025457600080fd5b506102c16004803603606081101561026b57600080fd5b81019080803573ffffffffffffffffffffffffffffffffffffffff169060200190929190803573ffffffffffffffffffffffffffffffffffffffff16906020019092919080359060200190929190505050610cd5565b604051808215151515815260200191505060405180910390f35b3480156102e757600080fd5b506102f0610d86565b604051808260ff1660ff16815260200191505060405180910390f35b34801561031857600080fd5b506103656004803603604081101561032f57600080fd5b81019080803573ffffffffffffffffffffffffffffffffffffffff16906020019092919080359060200190929190505050610d9d565b604051808215151515815260200191505060405180910390f35b34801561038b57600080fd5b50610394610e42565b005b6103e2600480360360408110156103ac57600080fd5b81019080803573ffffffffffffffffffffffffffffffffffffffff16906020019092919080359060200190929190505050610ff4565b604051808215151515815260200191505060405180910390f35b34801561040857600080fd5b5061044b6004803603602081101561041f57600080fd5b81019080803573ffffffffffffffffffffffffffffffffffffffff169060200190929190505050611434565b6040518082815260200191505060405180910390f35b61048d6004803603602081101561047757600080fd5b810190808035906020019092919050505061147c565b604051808215151515815260200191505060405180910390f35b3480156104b357600080fd5b506104bc6116d3565b6040518080602001828103825283818151815260200191508051906020019080838360005b838110156104fc5780820151818401526020810190506104e1565b50505050905090810190601f1680156105295780820380516001836020036101000a031916815260200191505b509250505060405180910390f35b34801561054357600080fd5b506105906004803603604081101561055a57600080fd5b81019080803573ffffffffffffffffffffffffffffffffffffffff16906020019092919080359060200190929190505050611775565b604051808215151515815260200191505060405180910390f35b3480156105b657600080fd5b50610603600480360360408110156105cd57600080fd5b81019080803573ffffffffffffffffffffffffffffffffffffffff1690602001909291908035906020019092919050505061181a565b604051808215151515815260200191505060405180910390f35b34801561062957600080fd5b5061068c6004803603604081101561064057600080fd5b81019080803573ffffffffffffffffffffffffffffffffffffffff169060200190929190803573ffffffffffffffffffffffffffffffffffffffff169060200190929190505050611831565b6040518082815260200191505060405180910390f35b3480156106ae57600080fd5b506106f1600480360360208110156106c557600080fd5b81019080803573ffffffffffffffffffffffffffffffffffffffff1690602001909291905050506118b8565b6040518082815260200191505060405180910390f35b600060065442111515610782576040517f08c379a00000000000000000000000000000000000000000000000000000000081526004018080602001828103825260208152602001807f4f7074696f6e20636f6e747261637420686173206e6f7420657870697265642e81525060200191505060405180910390fd5b6000600860003373ffffffffffffffffffffffffffffffffffffffff1673ffffffffffffffffffffffffffffffffffffffff16815260200190815260200160002054111515610839576040517f08c379a00000000000000000000000000000000000000000000000000000000081526004018080602001828103825260158152602001807f4e6f20636f6e747269627574696f6e20666f756e64000000000000000000000081525060200191505060405180910390fd5b60003073ffffffffffffffffffffffffffffffffffffffff1631905060006108a9600860003373ffffffffffffffffffffffffffffffffffffffff1673ffffffffffffffffffffffffffffffffffffffff168152602001908152602001600020548361190190919063ffffffff16565b905060006108c2600954836119ce90919063ffffffff16565b9050600072d811b7d33ceccfcb7435f14ccc274a31ce7f5d73ffffffffffffffffffffffffffffffffffffffff166370a08231306040518263ffffffff167c0100000000000000000000000000000000000000000000000000000000028152600401808273ffffffffffffffffffffffffffffffffffffffff1673ffffffffffffffffffffffffffffffffffffffff16815260200191505060206040518083038186803b15801561097257600080fd5b505afa158015610986573d6000803e3d6000fd5b505050506040513d602081101561099c57600080fd5b810190808051906020019092919050505090506000610a03600860003373ffffffffffffffffffffffffffffffffffffffff1673ffffffffffffffffffffffffffffffffffffffff168152602001908152602001600020548361190190919063ffffffff16565b90506000610a1c600954836119ce90919063ffffffff16565b9050610a72600860003373ffffffffffffffffffffffffffffffffffffffff1673ffffffffffffffffffffffffffffffffffffffff16815260200190815260200160002054600954611a6190919063ffffffff16565b506000600860003373ffffffffffffffffffffffffffffffffffffffff1673ffffffffffffffffffffffffffffffffffffffff168152602001908152602001600020819055506000811115610bb45772d811b7d33ceccfcb7435f14ccc274a31ce7f5d73ffffffffffffffffffffffffffffffffffffffff1663a9059cbb33836040518363ffffffff167c0100000000000000000000000000000000000000000000000000000000028152600401808373ffffffffffffffffffffffffffffffffffffffff1673ffffffffffffffffffffffffffffffffffffffff16815260200182815260200192505050602060405180830381600087803b158015610b7757600080fd5b505af1158015610b8b573d6000803e3d6000fd5b505050506040513d6020811015610ba157600080fd5b8101908080519060200190929190505050505b6000841115610c05573373ffffffffffffffffffffffffffffffffffffffff166108fc859081150290604051600060405180830381858888f19350505050158015610c03573d6000803e3d6000fd5b505b6001965050505050505090565b606060038054600181600116156101000203166002900480601f016020809104026020016040519081016040528092919081815260200182805460018160011615610100020316600290048015610caa5780601f10610c7f57610100808354040283529160200191610caa565b820191906000526020600020905b815481529060010190602001808311610c8d57829003601f168201915b5050505050905090565b6000610cc1338484611aec565b6001905092915050565b6000600254905090565b6000610ce2848484611d6d565b610d7b8433610d7685600160008a73ffffffffffffffffffffffffffffffffffffffff1673ffffffffffffffffffffffffffffffffffffffff16815260200190815260200160002060003373ffffffffffffffffffffffffffffffffffffffff1673ffffffffffffffffffffffffffffffffffffffff16815260200190815260200160002054611a6190919063ffffffff16565b611aec565b600190509392505050565b6000600560009054906101000a900460ff16905090565b6000610e383384610e3385600160003373ffffffffffffffffffffffffffffffffffffffff1673ffffffffffffffffffffffffffffffffffffffff16815260200190815260200160002060008973ffffffffffffffffffffffffffffffffffffffff1673ffffffffffffffffffffffffffffffffffffffff1681526020019081526020016000205461209390919063ffffffff16565b611aec565b6001905092915050565b60065442111515610ebb576040517f08c379a00000000000000000000000000000000000000000000000000000000081526004018080602001828103825260208152602001807f4f7074696f6e20636f6e747261637420686173206e6f7420657870697265642e81525060200191505060405180910390fd5b60003073ffffffffffffffffffffffffffffffffffffffff16319050600072d811b7d33ceccfcb7435f14ccc274a31ce7f5d73ffffffffffffffffffffffffffffffffffffffff166370a08231306040518263ffffffff167c0100000000000000000000000000000000000000000000000000000000028152600401808273ffffffffffffffffffffffffffffffffffffffff1673ffffffffffffffffffffffffffffffffffffffff16815260200191505060206040518083038186803b158015610f8557600080fd5b505afa158015610f99573d6000803e3d6000fd5b505050506040513d6020811015610faf57600080fd5b81019080805190602001909291905050509050600082148015610fd25750600081145b15610ff0573373ffffffffffffffffffffffffffffffffffffffff16ff5b5050565b60006006544211151515611070576040517f08c379a000000000000000000000000000000000000000000000000000000000815260040180806020018281038252601c8152602001807f4f7074696f6e20636f6e74726163742068617320657870697265642e0000000081525060200191505060405180910390fd5b3373ffffffffffffffffffffffffffffffffffffffff168373ffffffffffffffffffffffffffffffffffffffff1614151561112757816110b08433611831565b10151515611126576040517f08c379a00000000000000000000000000000000000000000000000000000000081526004018080602001828103825260158152602001807f556e617574686f72697a6564206578657263697365000000000000000000000081525060200191505060405180910390fd5b5b81341015151561119f576040517f08c379a00000000000000000000000000000000000000000000000000000000081526004018080602001828103825260188152602001807f4e6f74204554482073656e7420746f206578657263697365000000000000000081525060200191505060405180910390fd5b816111a984611434565b1015151561121f576040517f08c379a000000000000000000000000000000000000000000000000000000000815260040180806020018281038252601e8152602001807f4e6f7420656e6f756768206f7074696f6e20746f6b656e73206f776e6564000081525060200191505060405180910390fd5b611229838361211d565b60006112406007548461190190919063ffffffff16565b905072d811b7d33ceccfcb7435f14ccc274a31ce7f5d73ffffffffffffffffffffffffffffffffffffffff166323b872dd3086846040518463ffffffff167c0100000000000000000000000000000000000000000000000000000000028152600401808473ffffffffffffffffffffffffffffffffffffffff1673ffffffffffffffffffffffffffffffffffffffff1681526020018373ffffffffffffffffffffffffffffffffffffffff1673ffffffffffffffffffffffffffffffffffffffff1681526020018281526020019350505050602060405180830381600087803b15801561132c57600080fd5b505af1158015611340573d6000803e3d6000fd5b505050506040513d602081101561135657600080fd5b810190808051906020019092919050505015156113db576040517f08c379a00000000000000000000000000000000000000000000000000000000081526004018080602001828103825260198152602001807f444149207472616e7366657220756e7375636365737366756c0000000000000081525060200191505060405180910390fd5b8373ffffffffffffffffffffffffffffffffffffffff167f8ddc97895f60c450c0b09eaeadbc42f8973b77f9540fe465b91939670ee4807b846040518082815260200191505060405180910390a2600191505092915050565b60008060008373ffffffffffffffffffffffffffffffffffffffff1673ffffffffffffffffffffffffffffffffffffffff168152602001908152602001600020549050919050565b600073eb770b1883dcce11781649e8c4f1ac5f4b40c97873ffffffffffffffffffffffffffffffffffffffff166323b872dd3330856040518463ffffffff167c0100000000000000000000000000000000000000000000000000000000028152600401808473ffffffffffffffffffffffffffffffffffffffff1673ffffffffffffffffffffffffffffffffffffffff1681526020018373ffffffffffffffffffffffffffffffffffffffff1673ffffffffffffffffffffffffffffffffffffffff1681526020018281526020019350505050602060405180830381600087803b15801561156957600080fd5b505af115801561157d573d6000803e3d6000fd5b505050506040513d602081101561159357600080fd5b81019080805190602001909291905050501515611618576040517f08c379a000000000000000000000000000000000000000000000000000000000815260040180806020018281038252601a8152602001807f70425443207472616e7366657220756e7375636365737366756c00000000000081525060200191505060405180910390fd5b81600860003373ffffffffffffffffffffffffffffffffffffffff1673ffffffffffffffffffffffffffffffffffffffff168152602001908152602001600020819055506116718260095461209390919063ffffffff16565b5061167c3383612300565b3373ffffffffffffffffffffffffffffffffffffffff167fecfcecf9c6cf434c1f909baa2a7d4ed561b2612dc9520fcc0e17934e13430557346040518082815260200191505060405180910390a260019050919050565b606060048054600181600116156101000203166002900480601f01602080910402602001604051908101604052809291908181526020018280546001816001161561010002031660029004801561176b5780601f106117405761010080835404028352916020019161176b565b820191906000526020600020905b81548152906001019060200180831161174e57829003601f168201915b5050505050905090565b6000611810338461180b85600160003373ffffffffffffffffffffffffffffffffffffffff1673ffffffffffffffffffffffffffffffffffffffff16815260200190815260200160002060008973ffffffffffffffffffffffffffffffffffffffff1673ffffffffffffffffffffffffffffffffffffffff16815260200190815260200160002054611a6190919063ffffffff16565b611aec565b6001905092915050565b6000611827338484611d6d565b6001905092915050565b6000600160008473ffffffffffffffffffffffffffffffffffffffff1673ffffffffffffffffffffffffffffffffffffffff16815260200190815260200160002060008373ffffffffffffffffffffffffffffffffffffffff1673ffffffffffffffffffffffffffffffffffffffff16815260200190815260200160002054905092915050565b6000600860008373ffffffffffffffffffffffffffffffffffffffff1673ffffffffffffffffffffffffffffffffffffffff168152602001908152602001600020549050919050565b60008083141561191457600090506119c8565b6000828402905082848281151561192757fe5b041415156119c3576040517f08c379a00000000000000000000000000000000000000000000000000000000081526004018080602001828103825260218152602001807f536166654d6174683a206d756c7469706c69636174696f6e206f766572666c6f81526020017f770000000000000000000000000000000000000000000000000000000000000081525060400191505060405180910390fd5b809150505b92915050565b60008082111515611a47576040517f08c379a000000000000000000000000000000000000000000000000000000000815260040180806020018281038252601a8152602001807f536166654d6174683a206469766973696f6e206279207a65726f00000000000081525060200191505060405180910390fd5b60008284811515611a5457fe5b0490508091505092915050565b6000828211151515611adb576040517f08c379a000000000000000000000000000000000000000000000000000000000815260040180806020018281038252601e8152602001807f536166654d6174683a207375627472616374696f6e206f766572666c6f77000081525060200191505060405180910390fd5b600082840390508091505092915050565b600073ffffffffffffffffffffffffffffffffffffffff168373ffffffffffffffffffffffffffffffffffffffff1614151515611bb7576040517f08c379a00000000000000000000000000000000000000000000000000000000081526004018080602001828103825260248152602001807f45524332303a20617070726f76652066726f6d20746865207a65726f2061646481526020017f726573730000000000000000000000000000000000000000000000000000000081525060400191505060405180910390fd5b600073ffffffffffffffffffffffffffffffffffffffff168273ffffffffffffffffffffffffffffffffffffffff1614151515611c82576040517f08c379a00000000000000000000000000000000000000000000000000000000081526004018080602001828103825260228152602001807f45524332303a20617070726f766520746f20746865207a65726f20616464726581526020017f737300000000000000000000000000000000000000000000000000000000000081525060400191505060405180910390fd5b80600160008573ffffffffffffffffffffffffffffffffffffffff1673ffffffffffffffffffffffffffffffffffffffff16815260200190815260200160002060008473ffffffffffffffffffffffffffffffffffffffff1673ffffffffffffffffffffffffffffffffffffffff168152602001908152602001600020819055508173ffffffffffffffffffffffffffffffffffffffff168373ffffffffffffffffffffffffffffffffffffffff167f8c5be1e5ebec7d5bd14f71427d1e84f3dd0314c0f7b2291e5b200ac8c7c3b925836040518082815260200191505060405180910390a3505050565b600073ffffffffffffffffffffffffffffffffffffffff168373ffffffffffffffffffffffffffffffffffffffff1614151515611e38576040517f08c379a00000000000000000000000000000000000000000000000000000000081526004018080602001828103825260258152602001807f45524332303a207472616e736665722066726f6d20746865207a65726f20616481526020017f647265737300000000000000000000000000000000000000000000000000000081525060400191505060405180910390fd5b600073ffffffffffffffffffffffffffffffffffffffff168273ffffffffffffffffffffffffffffffffffffffff1614151515611f03576040517f08c379a00000000000000000000000000000000000000000000000000000000081526004018080602001828103825260238152602001807f45524332303a207472616e7366657220746f20746865207a65726f206164647281526020017f657373000000000000000000000000000000000000000000000000000000000081525060400191505060405180910390fd5b611f54816000808673ffffffffffffffffffffffffffffffffffffffff1673ffffffffffffffffffffffffffffffffffffffff16815260200190815260200160002054611a6190919063ffffffff16565b6000808573ffffffffffffffffffffffffffffffffffffffff1673ffffffffffffffffffffffffffffffffffffffff16815260200190815260200160002081905550611fe7816000808573ffffffffffffffffffffffffffffffffffffffff1673ffffffffffffffffffffffffffffffffffffffff1681526020019081526020016000205461209390919063ffffffff16565b6000808473ffffffffffffffffffffffffffffffffffffffff1673ffffffffffffffffffffffffffffffffffffffff168152602001908152602001600020819055508173ffffffffffffffffffffffffffffffffffffffff168373ffffffffffffffffffffffffffffffffffffffff167fddf252ad1be2c89b69c2b068fc378daa952ba7f163c4a11628f55a4df523b3ef836040518082815260200191505060405180910390a3505050565b6000808284019050838110151515612113576040517f08c379a000000000000000000000000000000000000000000000000000000000815260040180806020018281038252601b8152602001807f536166654d6174683a206164646974696f6e206f766572666c6f77000000000081525060200191505060405180910390fd5b8091505092915050565b600073ffffffffffffffffffffffffffffffffffffffff168273ffffffffffffffffffffffffffffffffffffffff16141515156121e8576040517f08c379a00000000000000000000000000000000000000000000000000000000081526004018080602001828103825260218152602001807f45524332303a206275726e2066726f6d20746865207a65726f2061646472657381526020017f730000000000000000000000000000000000000000000000000000000000000081525060400191505060405180910390fd5b6121fd81600254611a6190919063ffffffff16565b600281905550612254816000808573ffffffffffffffffffffffffffffffffffffffff1673ffffffffffffffffffffffffffffffffffffffff16815260200190815260200160002054611a6190919063ffffffff16565b6000808473ffffffffffffffffffffffffffffffffffffffff1673ffffffffffffffffffffffffffffffffffffffff16815260200190815260200160002081905550600073ffffffffffffffffffffffffffffffffffffffff168273ffffffffffffffffffffffffffffffffffffffff167fddf252ad1be2c89b69c2b068fc378daa952ba7f163c4a11628f55a4df523b3ef836040518082815260200191505060405180910390a35050565b600073ffffffffffffffffffffffffffffffffffffffff168273ffffffffffffffffffffffffffffffffffffffff16141515156123a5576040517f08c379a000000000000000000000000000000000000000000000000000000000815260040180806020018281038252601f8152602001807f45524332303a206d696e7420746f20746865207a65726f20616464726573730081525060200191505060405180910390fd5b6123ba8160025461209390919063ffffffff16565b600281905550612411816000808573ffffffffffffffffffffffffffffffffffffffff1673ffffffffffffffffffffffffffffffffffffffff1681526020019081526020016000205461209390919063ffffffff16565b6000808473ffffffffffffffffffffffffffffffffffffffff1673ffffffffffffffffffffffffffffffffffffffff168152602001908152602001600020819055508173ffffffffffffffffffffffffffffffffffffffff16600073ffffffffffffffffffffffffffffffffffffffff167fddf252ad1be2c89b69c2b068fc378daa952ba7f163c4a11628f55a4df523b3ef836040518082815260200191505060405180910390a3505056fea165627a7a723058200e9bc7f73c2da47c4546b25532a92fa357089bbbc26ed768925679cb773c52fa0029a165627a7a7230582087b3a9160c7dab042ae139b8c26e18e3dd543bb40c83ae6147523147c1eb90770029",
  "source": "pragma solidity ^0.5.0;\n\nimport \"./ETHCallOption.sol\";\nimport \"./ETHPutOption.sol\";\n\ncontract ETHOptionsFactory {\n    \n    mapping(uint256 => mapping(uint256 => address)) private _call_option_contracts;\n    mapping(uint256 => mapping(uint256 => address)) private _put_option_contracts;\n\n    event CallOptionContractCreated(address indexed contract_address, uint256 expiration_timestamp, uint256 strike);\n    event PutOptionContractCreated(address indexed contract_address, uint256 expiration_timestamp, uint256 strike);\n    \n    function callOptionContract(uint256 expiration_timestamp, uint256 strike) public view returns (address) {\n        return _call_option_contracts[expiration_timestamp][strike];\n    }\n    \n    function putOptionContract(uint256 expiration_timestamp, uint256 strike) public view returns (address) {\n        return _put_option_contracts[expiration_timestamp][strike];\n    }\n    \n    function createCallOptionContract(uint256 expiration_timestamp, uint256 strike) public returns (bool success) {\n        \n        // check valid expiration\n        require(expiration_timestamp >= now, \"Invalid expiration.\");\n        \n        // check the contract was not already created\n        require(_call_option_contracts[expiration_timestamp][strike] == address(0), \"Contract already created.\");\n        \n        // create new call option contract with the given parameters\n        ETHCallOption call_option_contract = new ETHCallOption(expiration_timestamp, strike, \"ETH Call Contract\", \"ETHCall\");\n\n        address call_option_contract_address = address(call_option_contract);\n\n        _call_option_contracts[expiration_timestamp][strike] = call_option_contract_address;\n\n        emit CallOptionContractCreated(call_option_contract_address, expiration_timestamp, strike);\n        \n        return true;\n    }\n    \n    function createPutOptionContract(uint256 expiration_timestamp, uint256 strike) public returns (bool success) {\n\n        // check valid expiration\n        require(expiration_timestamp >= now, \"Invalid expiration.\");\n        \n        // check the contract was not already created\n        require(_put_option_contracts[expiration_timestamp][strike] == address(0), \"Contract already created.\");\n        \n        // create new put option contract with the given parameters\n        ETHPutOption put_option_contract = new ETHPutOption(expiration_timestamp, strike, \"ETH Put Contract\", \"ETHPut\");\n\n        address put_option_contract_address = address(put_option_contract);\n\n        _put_option_contracts[expiration_timestamp][strike] = put_option_contract_address;\n\n        emit PutOptionContractCreated(put_option_contract_address, expiration_timestamp, strike);\n        \n        return true;\n    }\n}",
  "sourcePath": "C:\\Users\\datta\\Desktop\\hackmoney\\ptokens_option_contracts_frontend\\contracts\\ETHOptionsFactory.sol",
  "compiler": {
    "name": "solc",
    "version": "0.5.0+commit.1d4f565a.Emscripten.clang"
  },
  "schemaVersion": "3.1.0",
  "updatedAt": "2020-05-24T11:25:37.348Z",
  "networkType": "ethereum",
  "devdoc": {
    "methods": {}
  },
  "userdoc": {
    "methods": {}
  }
}