{
  "contractName": "ETHPutOption",
  "abi": [
    {
      "constant": true,
      "inputs": [],
      "name": "name",
      "outputs": [
        {
          "name": "",
          "type": "string"
        }
      ],
      "payable": false,
      "stateMutability": "view",
      "type": "function"
    },
    {
      "constant": false,
      "inputs": [
        {
          "name": "spender",
          "type": "address"
        },
        {
          "name": "value",
          "type": "uint256"
        }
      ],
      "name": "approve",
      "outputs": [
        {
          "name": "",
          "type": "bool"
        }
      ],
      "payable": false,
      "stateMutability": "nonpayable",
      "type": "function"
    },
    {
      "constant": true,
      "inputs": [],
      "name": "totalSupply",
      "outputs": [
        {
          "name": "",
          "type": "uint256"
        }
      ],
      "payable": false,
      "stateMutability": "view",
      "type": "function"
    },
    {
      "constant": false,
      "inputs": [
        {
          "name": "sender",
          "type": "address"
        },
        {
          "name": "recipient",
          "type": "address"
        },
        {
          "name": "amount",
          "type": "uint256"
        }
      ],
      "name": "transferFrom",
      "outputs": [
        {
          "name": "",
          "type": "bool"
        }
      ],
      "payable": false,
      "stateMutability": "nonpayable",
      "type": "function"
    },
    {
      "constant": true,
      "inputs": [],
      "name": "decimals",
      "outputs": [
        {
          "name": "",
          "type": "uint8"
        }
      ],
      "payable": false,
      "stateMutability": "view",
      "type": "function"
    },
    {
      "constant": false,
      "inputs": [
        {
          "name": "spender",
          "type": "address"
        },
        {
          "name": "addedValue",
          "type": "uint256"
        }
      ],
      "name": "increaseAllowance",
      "outputs": [
        {
          "name": "",
          "type": "bool"
        }
      ],
      "payable": false,
      "stateMutability": "nonpayable",
      "type": "function"
    },
    {
      "constant": true,
      "inputs": [
        {
          "name": "account",
          "type": "address"
        }
      ],
      "name": "balanceOf",
      "outputs": [
        {
          "name": "",
          "type": "uint256"
        }
      ],
      "payable": false,
      "stateMutability": "view",
      "type": "function"
    },
    {
      "constant": true,
      "inputs": [],
      "name": "symbol",
      "outputs": [
        {
          "name": "",
          "type": "string"
        }
      ],
      "payable": false,
      "stateMutability": "view",
      "type": "function"
    },
    {
      "constant": false,
      "inputs": [
        {
          "name": "spender",
          "type": "address"
        },
        {
          "name": "subtractedValue",
          "type": "uint256"
        }
      ],
      "name": "decreaseAllowance",
      "outputs": [
        {
          "name": "",
          "type": "bool"
        }
      ],
      "payable": false,
      "stateMutability": "nonpayable",
      "type": "function"
    },
    {
      "constant": false,
      "inputs": [
        {
          "name": "recipient",
          "type": "address"
        },
        {
          "name": "amount",
          "type": "uint256"
        }
      ],
      "name": "transfer",
      "outputs": [
        {
          "name": "",
          "type": "bool"
        }
      ],
      "payable": false,
      "stateMutability": "nonpayable",
      "type": "function"
    },
    {
      "constant": true,
      "inputs": [
        {
          "name": "owner",
          "type": "address"
        },
        {
          "name": "spender",
          "type": "address"
        }
      ],
      "name": "allowance",
      "outputs": [
        {
          "name": "",
          "type": "uint256"
        }
      ],
      "payable": false,
      "stateMutability": "view",
      "type": "function"
    },
    {
      "inputs": [
        {
          "name": "expiration_timestamp",
          "type": "uint256"
        },
        {
          "name": "strike",
          "type": "uint256"
        },
        {
          "name": "name",
          "type": "string"
        },
        {
          "name": "symbol",
          "type": "string"
        }
      ],
      "payable": true,
      "stateMutability": "payable",
      "type": "constructor"
    },
    {
      "anonymous": false,
      "inputs": [
        {
          "indexed": true,
          "name": "owner",
          "type": "address"
        },
        {
          "indexed": false,
          "name": "amount",
          "type": "uint256"
        }
      ],
      "name": "OptionExercised",
      "type": "event"
    },
    {
      "anonymous": false,
      "inputs": [
        {
          "indexed": true,
          "name": "writer",
          "type": "address"
        },
        {
          "indexed": false,
          "name": "amount",
          "type": "uint256"
        }
      ],
      "name": "OptionWrote",
      "type": "event"
    },
    {
      "anonymous": false,
      "inputs": [
        {
          "indexed": true,
          "name": "from",
          "type": "address"
        },
        {
          "indexed": true,
          "name": "to",
          "type": "address"
        },
        {
          "indexed": false,
          "name": "value",
          "type": "uint256"
        }
      ],
      "name": "Transfer",
      "type": "event"
    },
    {
      "anonymous": false,
      "inputs": [
        {
          "indexed": true,
          "name": "owner",
          "type": "address"
        },
        {
          "indexed": true,
          "name": "spender",
          "type": "address"
        },
        {
          "indexed": false,
          "name": "value",
          "type": "uint256"
        }
      ],
      "name": "Approval",
      "type": "event"
    },
    {
      "constant": true,
      "inputs": [
        {
          "name": "contributor",
          "type": "address"
        }
      ],
      "name": "contribution",
      "outputs": [
        {
          "name": "",
          "type": "uint256"
        }
      ],
      "payable": false,
      "stateMutability": "view",
      "type": "function"
    },
    {
      "constant": false,
      "inputs": [
        {
          "name": "exercisor",
          "type": "address"
        },
        {
          "name": "amount",
          "type": "uint256"
        }
      ],
      "name": "exerciseOption",
      "outputs": [
        {
          "name": "success",
          "type": "bool"
        }
      ],
      "payable": true,
      "stateMutability": "payable",
      "type": "function"
    },
    {
      "constant": false,
      "inputs": [
        {
          "name": "amount",
          "type": "uint256"
        }
      ],
      "name": "writeOption",
      "outputs": [
        {
          "name": "success",
          "type": "bool"
        }
      ],
      "payable": true,
      "stateMutability": "payable",
      "type": "function"
    },
    {
      "constant": false,
      "inputs": [],
      "name": "claimContribution",
      "outputs": [
        {
          "name": "success",
          "type": "bool"
        }
      ],
      "payable": false,
      "stateMutability": "nonpayable",
      "type": "function"
    },
    {
      "constant": false,
      "inputs": [],
      "name": "deleteContract",
      "outputs": [],
      "payable": false,
      "stateMutability": "nonpayable",
      "type": "function"
    }
  ],
  "bytecode": "0x6080604052604051620026f9380380620026f9833981018060405260808110156200002957600080fd5b81019080805190602001909291908051906020019092919080516401000000008111156200005657600080fd5b828101905060208101848111156200006d57600080fd5b81518560018202830111640100000000821117156200008b57600080fd5b50509291906020018051640100000000811115620000a857600080fd5b82810190506020810184811115620000bf57600080fd5b8151856001820283011164010000000082111715620000dd57600080fd5b50509291905050508181601282600390805190602001906200010192919062000151565b5081600490805190602001906200011a92919062000151565b5080600560006101000a81548160ff021916908360ff16021790555050505083600681905550826007819055505050505062000200565b828054600181600116156101000203166002900490600052602060002090601f016020900481019282601f106200019457805160ff1916838001178555620001c5565b82800160010185558215620001c5579182015b82811115620001c4578251825591602001919060010190620001a7565b5b509050620001d49190620001d8565b5090565b620001fd91905b80821115620001f9576000816000905550600101620001df565b5090565b90565b6124e980620002106000396000f3fe6080604052600436106100e6576000357c0100000000000000000000000000000000000000000000000000000000900463ffffffff1680630114a690146100eb57806306fdde031461011a578063095ea7b3146101aa57806318160ddd1461021d57806323b872dd14610248578063313ce567146102db578063395093511461030c5780635a58cd4c1461037f57806367842b821461039657806370a08231146103fc578063882714f41461046157806395d89b41146104a7578063a457c2d714610537578063a9059cbb146105aa578063dd62ed3e1461061d578063e2dc4310146106a2575b600080fd5b3480156100f757600080fd5b50610100610707565b604051808215151515815260200191505060405180910390f35b34801561012657600080fd5b5061012f610c12565b6040518080602001828103825283818151815260200191508051906020019080838360005b8381101561016f578082015181840152602081019050610154565b50505050905090810190601f16801561019c5780820380516001836020036101000a031916815260200191505b509250505060405180910390f35b3480156101b657600080fd5b50610203600480360360408110156101cd57600080fd5b81019080803573ffffffffffffffffffffffffffffffffffffffff16906020019092919080359060200190929190505050610cb4565b604051808215151515815260200191505060405180910390f35b34801561022957600080fd5b50610232610ccb565b6040518082815260200191505060405180910390f35b34801561025457600080fd5b506102c16004803603606081101561026b57600080fd5b81019080803573ffffffffffffffffffffffffffffffffffffffff169060200190929190803573ffffffffffffffffffffffffffffffffffffffff16906020019092919080359060200190929190505050610cd5565b604051808215151515815260200191505060405180910390f35b3480156102e757600080fd5b506102f0610d86565b604051808260ff1660ff16815260200191505060405180910390f35b34801561031857600080fd5b506103656004803603604081101561032f57600080fd5b81019080803573ffffffffffffffffffffffffffffffffffffffff16906020019092919080359060200190929190505050610d9d565b604051808215151515815260200191505060405180910390f35b34801561038b57600080fd5b50610394610e42565b005b6103e2600480360360408110156103ac57600080fd5b81019080803573ffffffffffffffffffffffffffffffffffffffff16906020019092919080359060200190929190505050610ff4565b604051808215151515815260200191505060405180910390f35b34801561040857600080fd5b5061044b6004803603602081101561041f57600080fd5b81019080803573ffffffffffffffffffffffffffffffffffffffff169060200190929190505050611434565b6040518082815260200191505060405180910390f35b61048d6004803603602081101561047757600080fd5b810190808035906020019092919050505061147c565b604051808215151515815260200191505060405180910390f35b3480156104b357600080fd5b506104bc6116d3565b6040518080602001828103825283818151815260200191508051906020019080838360005b838110156104fc5780820151818401526020810190506104e1565b50505050905090810190601f1680156105295780820380516001836020036101000a031916815260200191505b509250505060405180910390f35b34801561054357600080fd5b506105906004803603604081101561055a57600080fd5b81019080803573ffffffffffffffffffffffffffffffffffffffff16906020019092919080359060200190929190505050611775565b604051808215151515815260200191505060405180910390f35b3480156105b657600080fd5b50610603600480360360408110156105cd57600080fd5b81019080803573ffffffffffffffffffffffffffffffffffffffff1690602001909291908035906020019092919050505061181a565b604051808215151515815260200191505060405180910390f35b34801561062957600080fd5b5061068c6004803603604081101561064057600080fd5b81019080803573ffffffffffffffffffffffffffffffffffffffff169060200190929190803573ffffffffffffffffffffffffffffffffffffffff169060200190929190505050611831565b6040518082815260200191505060405180910390f35b3480156106ae57600080fd5b506106f1600480360360208110156106c557600080fd5b81019080803573ffffffffffffffffffffffffffffffffffffffff1690602001909291905050506118b8565b6040518082815260200191505060405180910390f35b600060065442111515610782576040517f08c379a00000000000000000000000000000000000000000000000000000000081526004018080602001828103825260208152602001807f4f7074696f6e20636f6e747261637420686173206e6f7420657870697265642e81525060200191505060405180910390fd5b6000600860003373ffffffffffffffffffffffffffffffffffffffff1673ffffffffffffffffffffffffffffffffffffffff16815260200190815260200160002054111515610839576040517f08c379a00000000000000000000000000000000000000000000000000000000081526004018080602001828103825260158152602001807f4e6f20636f6e747269627574696f6e20666f756e64000000000000000000000081525060200191505060405180910390fd5b60003073ffffffffffffffffffffffffffffffffffffffff1631905060006108a9600860003373ffffffffffffffffffffffffffffffffffffffff1673ffffffffffffffffffffffffffffffffffffffff168152602001908152602001600020548361190190919063ffffffff16565b905060006108c2600954836119ce90919063ffffffff16565b9050600072d811b7d33ceccfcb7435f14ccc274a31ce7f5d73ffffffffffffffffffffffffffffffffffffffff166370a08231306040518263ffffffff167c0100000000000000000000000000000000000000000000000000000000028152600401808273ffffffffffffffffffffffffffffffffffffffff1673ffffffffffffffffffffffffffffffffffffffff16815260200191505060206040518083038186803b15801561097257600080fd5b505afa158015610986573d6000803e3d6000fd5b505050506040513d602081101561099c57600080fd5b810190808051906020019092919050505090506000610a03600860003373ffffffffffffffffffffffffffffffffffffffff1673ffffffffffffffffffffffffffffffffffffffff168152602001908152602001600020548361190190919063ffffffff16565b90506000610a1c600954836119ce90919063ffffffff16565b9050610a72600860003373ffffffffffffffffffffffffffffffffffffffff1673ffffffffffffffffffffffffffffffffffffffff16815260200190815260200160002054600954611a6190919063ffffffff16565b506000600860003373ffffffffffffffffffffffffffffffffffffffff1673ffffffffffffffffffffffffffffffffffffffff168152602001908152602001600020819055506000811115610bb45772d811b7d33ceccfcb7435f14ccc274a31ce7f5d73ffffffffffffffffffffffffffffffffffffffff1663a9059cbb33836040518363ffffffff167c0100000000000000000000000000000000000000000000000000000000028152600401808373ffffffffffffffffffffffffffffffffffffffff1673ffffffffffffffffffffffffffffffffffffffff16815260200182815260200192505050602060405180830381600087803b158015610b7757600080fd5b505af1158015610b8b573d6000803e3d6000fd5b505050506040513d6020811015610ba157600080fd5b8101908080519060200190929190505050505b6000841115610c05573373ffffffffffffffffffffffffffffffffffffffff166108fc859081150290604051600060405180830381858888f19350505050158015610c03573d6000803e3d6000fd5b505b6001965050505050505090565b606060038054600181600116156101000203166002900480601f016020809104026020016040519081016040528092919081815260200182805460018160011615610100020316600290048015610caa5780601f10610c7f57610100808354040283529160200191610caa565b820191906000526020600020905b815481529060010190602001808311610c8d57829003601f168201915b5050505050905090565b6000610cc1338484611aec565b6001905092915050565b6000600254905090565b6000610ce2848484611d6d565b610d7b8433610d7685600160008a73ffffffffffffffffffffffffffffffffffffffff1673ffffffffffffffffffffffffffffffffffffffff16815260200190815260200160002060003373ffffffffffffffffffffffffffffffffffffffff1673ffffffffffffffffffffffffffffffffffffffff16815260200190815260200160002054611a6190919063ffffffff16565b611aec565b600190509392505050565b6000600560009054906101000a900460ff16905090565b6000610e383384610e3385600160003373ffffffffffffffffffffffffffffffffffffffff1673ffffffffffffffffffffffffffffffffffffffff16815260200190815260200160002060008973ffffffffffffffffffffffffffffffffffffffff1673ffffffffffffffffffffffffffffffffffffffff1681526020019081526020016000205461209390919063ffffffff16565b611aec565b6001905092915050565b60065442111515610ebb576040517f08c379a00000000000000000000000000000000000000000000000000000000081526004018080602001828103825260208152602001807f4f7074696f6e20636f6e747261637420686173206e6f7420657870697265642e81525060200191505060405180910390fd5b60003073ffffffffffffffffffffffffffffffffffffffff16319050600072d811b7d33ceccfcb7435f14ccc274a31ce7f5d73ffffffffffffffffffffffffffffffffffffffff166370a08231306040518263ffffffff167c0100000000000000000000000000000000000000000000000000000000028152600401808273ffffffffffffffffffffffffffffffffffffffff1673ffffffffffffffffffffffffffffffffffffffff16815260200191505060206040518083038186803b158015610f8557600080fd5b505afa158015610f99573d6000803e3d6000fd5b505050506040513d6020811015610faf57600080fd5b81019080805190602001909291905050509050600082148015610fd25750600081145b15610ff0573373ffffffffffffffffffffffffffffffffffffffff16ff5b5050565b60006006544211151515611070576040517f08c379a000000000000000000000000000000000000000000000000000000000815260040180806020018281038252601c8152602001807f4f7074696f6e20636f6e74726163742068617320657870697265642e0000000081525060200191505060405180910390fd5b3373ffffffffffffffffffffffffffffffffffffffff168373ffffffffffffffffffffffffffffffffffffffff1614151561112757816110b08433611831565b10151515611126576040517f08c379a00000000000000000000000000000000000000000000000000000000081526004018080602001828103825260158152602001807f556e617574686f72697a6564206578657263697365000000000000000000000081525060200191505060405180910390fd5b5b81341015151561119f576040517f08c379a00000000000000000000000000000000000000000000000000000000081526004018080602001828103825260188152602001807f4e6f74204554482073656e7420746f206578657263697365000000000000000081525060200191505060405180910390fd5b816111a984611434565b1015151561121f576040517f08c379a000000000000000000000000000000000000000000000000000000000815260040180806020018281038252601e8152602001807f4e6f7420656e6f756768206f7074696f6e20746f6b656e73206f776e6564000081525060200191505060405180910390fd5b611229838361211d565b60006112406007548461190190919063ffffffff16565b905072d811b7d33ceccfcb7435f14ccc274a31ce7f5d73ffffffffffffffffffffffffffffffffffffffff166323b872dd3086846040518463ffffffff167c0100000000000000000000000000000000000000000000000000000000028152600401808473ffffffffffffffffffffffffffffffffffffffff1673ffffffffffffffffffffffffffffffffffffffff1681526020018373ffffffffffffffffffffffffffffffffffffffff1673ffffffffffffffffffffffffffffffffffffffff1681526020018281526020019350505050602060405180830381600087803b15801561132c57600080fd5b505af1158015611340573d6000803e3d6000fd5b505050506040513d602081101561135657600080fd5b810190808051906020019092919050505015156113db576040517f08c379a00000000000000000000000000000000000000000000000000000000081526004018080602001828103825260198152602001807f444149207472616e7366657220756e7375636365737366756c0000000000000081525060200191505060405180910390fd5b8373ffffffffffffffffffffffffffffffffffffffff167f8ddc97895f60c450c0b09eaeadbc42f8973b77f9540fe465b91939670ee4807b846040518082815260200191505060405180910390a2600191505092915050565b60008060008373ffffffffffffffffffffffffffffffffffffffff1673ffffffffffffffffffffffffffffffffffffffff168152602001908152602001600020549050919050565b600073eb770b1883dcce11781649e8c4f1ac5f4b40c97873ffffffffffffffffffffffffffffffffffffffff166323b872dd3330856040518463ffffffff167c0100000000000000000000000000000000000000000000000000000000028152600401808473ffffffffffffffffffffffffffffffffffffffff1673ffffffffffffffffffffffffffffffffffffffff1681526020018373ffffffffffffffffffffffffffffffffffffffff1673ffffffffffffffffffffffffffffffffffffffff1681526020018281526020019350505050602060405180830381600087803b15801561156957600080fd5b505af115801561157d573d6000803e3d6000fd5b505050506040513d602081101561159357600080fd5b81019080805190602001909291905050501515611618576040517f08c379a000000000000000000000000000000000000000000000000000000000815260040180806020018281038252601a8152602001807f70425443207472616e7366657220756e7375636365737366756c00000000000081525060200191505060405180910390fd5b81600860003373ffffffffffffffffffffffffffffffffffffffff1673ffffffffffffffffffffffffffffffffffffffff168152602001908152602001600020819055506116718260095461209390919063ffffffff16565b5061167c3383612300565b3373ffffffffffffffffffffffffffffffffffffffff167fecfcecf9c6cf434c1f909baa2a7d4ed561b2612dc9520fcc0e17934e13430557346040518082815260200191505060405180910390a260019050919050565b606060048054600181600116156101000203166002900480601f01602080910402602001604051908101604052809291908181526020018280546001816001161561010002031660029004801561176b5780601f106117405761010080835404028352916020019161176b565b820191906000526020600020905b81548152906001019060200180831161174e57829003601f168201915b5050505050905090565b6000611810338461180b85600160003373ffffffffffffffffffffffffffffffffffffffff1673ffffffffffffffffffffffffffffffffffffffff16815260200190815260200160002060008973ffffffffffffffffffffffffffffffffffffffff1673ffffffffffffffffffffffffffffffffffffffff16815260200190815260200160002054611a6190919063ffffffff16565b611aec565b6001905092915050565b6000611827338484611d6d565b6001905092915050565b6000600160008473ffffffffffffffffffffffffffffffffffffffff1673ffffffffffffffffffffffffffffffffffffffff16815260200190815260200160002060008373ffffffffffffffffffffffffffffffffffffffff1673ffffffffffffffffffffffffffffffffffffffff16815260200190815260200160002054905092915050565b6000600860008373ffffffffffffffffffffffffffffffffffffffff1673ffffffffffffffffffffffffffffffffffffffff168152602001908152602001600020549050919050565b60008083141561191457600090506119c8565b6000828402905082848281151561192757fe5b041415156119c3576040517f08c379a00000000000000000000000000000000000000000000000000000000081526004018080602001828103825260218152602001807f536166654d6174683a206d756c7469706c69636174696f6e206f766572666c6f81526020017f770000000000000000000000000000000000000000000000000000000000000081525060400191505060405180910390fd5b809150505b92915050565b60008082111515611a47576040517f08c379a000000000000000000000000000000000000000000000000000000000815260040180806020018281038252601a8152602001807f536166654d6174683a206469766973696f6e206279207a65726f00000000000081525060200191505060405180910390fd5b60008284811515611a5457fe5b0490508091505092915050565b6000828211151515611adb576040517f08c379a000000000000000000000000000000000000000000000000000000000815260040180806020018281038252601e8152602001807f536166654d6174683a207375627472616374696f6e206f766572666c6f77000081525060200191505060405180910390fd5b600082840390508091505092915050565b600073ffffffffffffffffffffffffffffffffffffffff168373ffffffffffffffffffffffffffffffffffffffff1614151515611bb7576040517f08c379a00000000000000000000000000000000000000000000000000000000081526004018080602001828103825260248152602001807f45524332303a20617070726f76652066726f6d20746865207a65726f2061646481526020017f726573730000000000000000000000000000000000000000000000000000000081525060400191505060405180910390fd5b600073ffffffffffffffffffffffffffffffffffffffff168273ffffffffffffffffffffffffffffffffffffffff1614151515611c82576040517f08c379a00000000000000000000000000000000000000000000000000000000081526004018080602001828103825260228152602001807f45524332303a20617070726f766520746f20746865207a65726f20616464726581526020017f737300000000000000000000000000000000000000000000000000000000000081525060400191505060405180910390fd5b80600160008573ffffffffffffffffffffffffffffffffffffffff1673ffffffffffffffffffffffffffffffffffffffff16815260200190815260200160002060008473ffffffffffffffffffffffffffffffffffffffff1673ffffffffffffffffffffffffffffffffffffffff168152602001908152602001600020819055508173ffffffffffffffffffffffffffffffffffffffff168373ffffffffffffffffffffffffffffffffffffffff167f8c5be1e5ebec7d5bd14f71427d1e84f3dd0314c0f7b2291e5b200ac8c7c3b925836040518082815260200191505060405180910390a3505050565b600073ffffffffffffffffffffffffffffffffffffffff168373ffffffffffffffffffffffffffffffffffffffff1614151515611e38576040517f08c379a00000000000000000000000000000000000000000000000000000000081526004018080602001828103825260258152602001807f45524332303a207472616e736665722066726f6d20746865207a65726f20616481526020017f647265737300000000000000000000000000000000000000000000000000000081525060400191505060405180910390fd5b600073ffffffffffffffffffffffffffffffffffffffff168273ffffffffffffffffffffffffffffffffffffffff1614151515611f03576040517f08c379a00000000000000000000000000000000000000000000000000000000081526004018080602001828103825260238152602001807f45524332303a207472616e7366657220746f20746865207a65726f206164647281526020017f657373000000000000000000000000000000000000000000000000000000000081525060400191505060405180910390fd5b611f54816000808673ffffffffffffffffffffffffffffffffffffffff1673ffffffffffffffffffffffffffffffffffffffff16815260200190815260200160002054611a6190919063ffffffff16565b6000808573ffffffffffffffffffffffffffffffffffffffff1673ffffffffffffffffffffffffffffffffffffffff16815260200190815260200160002081905550611fe7816000808573ffffffffffffffffffffffffffffffffffffffff1673ffffffffffffffffffffffffffffffffffffffff1681526020019081526020016000205461209390919063ffffffff16565b6000808473ffffffffffffffffffffffffffffffffffffffff1673ffffffffffffffffffffffffffffffffffffffff168152602001908152602001600020819055508173ffffffffffffffffffffffffffffffffffffffff168373ffffffffffffffffffffffffffffffffffffffff167fddf252ad1be2c89b69c2b068fc378daa952ba7f163c4a11628f55a4df523b3ef836040518082815260200191505060405180910390a3505050565b6000808284019050838110151515612113576040517f08c379a000000000000000000000000000000000000000000000000000000000815260040180806020018281038252601b8152602001807f536166654d6174683a206164646974696f6e206f766572666c6f77000000000081525060200191505060405180910390fd5b8091505092915050565b600073ffffffffffffffffffffffffffffffffffffffff168273ffffffffffffffffffffffffffffffffffffffff16141515156121e8576040517f08c379a00000000000000000000000000000000000000000000000000000000081526004018080602001828103825260218152602001807f45524332303a206275726e2066726f6d20746865207a65726f2061646472657381526020017f730000000000000000000000000000000000000000000000000000000000000081525060400191505060405180910390fd5b6121fd81600254611a6190919063ffffffff16565b600281905550612254816000808573ffffffffffffffffffffffffffffffffffffffff1673ffffffffffffffffffffffffffffffffffffffff16815260200190815260200160002054611a6190919063ffffffff16565b6000808473ffffffffffffffffffffffffffffffffffffffff1673ffffffffffffffffffffffffffffffffffffffff16815260200190815260200160002081905550600073ffffffffffffffffffffffffffffffffffffffff168273ffffffffffffffffffffffffffffffffffffffff167fddf252ad1be2c89b69c2b068fc378daa952ba7f163c4a11628f55a4df523b3ef836040518082815260200191505060405180910390a35050565b600073ffffffffffffffffffffffffffffffffffffffff168273ffffffffffffffffffffffffffffffffffffffff16141515156123a5576040517f08c379a000000000000000000000000000000000000000000000000000000000815260040180806020018281038252601f8152602001807f45524332303a206d696e7420746f20746865207a65726f20616464726573730081525060200191505060405180910390fd5b6123ba8160025461209390919063ffffffff16565b600281905550612411816000808573ffffffffffffffffffffffffffffffffffffffff1673ffffffffffffffffffffffffffffffffffffffff1681526020019081526020016000205461209390919063ffffffff16565b6000808473ffffffffffffffffffffffffffffffffffffffff1673ffffffffffffffffffffffffffffffffffffffff168152602001908152602001600020819055508173ffffffffffffffffffffffffffffffffffffffff16600073ffffffffffffffffffffffffffffffffffffffff167fddf252ad1be2c89b69c2b068fc378daa952ba7f163c4a11628f55a4df523b3ef836040518082815260200191505060405180910390a3505056fea165627a7a723058200e9bc7f73c2da47c4546b25532a92fa357089bbbc26ed768925679cb773c52fa0029",
  "source": "//pragma solidity >=0.6.0 <0.7.0\npragma solidity ^0.5.0;\n\nimport \"../node_modules/openzeppelin-solidity/contracts/token/ERC20/ERC20.sol\";\nimport \"../node_modules/openzeppelin-solidity/contracts/token/ERC20/ERC20Detailed.sol\";\nimport \"../node_modules/openzeppelin-solidity/contracts/math/SafeMath.sol\";\nimport \"../node_modules/openzeppelin-solidity/contracts/token/ERC777/ERC777.sol\";\n\ncontract ETHPutOption is ERC20, ERC20Detailed {\n    using SafeMath for uint256;\n    \n    uint256 private _expiration_timestamp;\n    uint256 private _strike;\n    \n    mapping(address => uint) private _contributions;\n    uint256 private _total_contribution;\n    \n    ERC20 constant private DAI_CONTRACT = ERC20(0x00D811B7d33cECCFcb7435F14cCC274a31CE7F5d);\n    ERC777 constant private PBTC_CONTRACT = ERC777(0xEB770B1883Dcce11781649E8c4F1ac5F4B40C978);\n    \n    event OptionExercised(address indexed owner, uint256 amount);\n    event OptionWrote(address indexed writer, uint256 amount);\n    //event ReceivedPBTC(address indexed writer, uint256 amount);\n    //event ReceivedPBTC(operator, from, to, amount, userData, operatorData);\n\n    constructor(uint256 expiration_timestamp, uint256 strike, string memory name, string memory symbol)\n        ERC20Detailed(name, symbol, 18)\n        public\n        payable\n    {\n        _expiration_timestamp = expiration_timestamp;\n        _strike = strike;\n    }\n    \n    function contribution(address contributor) public view returns (uint256) {\n        return _contributions[contributor];\n    }\n    \n    modifier beforeExpiration() {\n        require(block.timestamp <= _expiration_timestamp, \"Option contract has expired.\");\n        _;\n    }\n\n    function exerciseOption(address exercisor, uint256 amount) public payable beforeExpiration returns (bool success) {\n        if(exercisor != msg.sender){\n            require(allowance(exercisor, msg.sender) >= amount, \"Unauthorized exercise\");\n        }\n        require(msg.value >= amount, \"Not ETH sent to exercise\");\n        require(balanceOf(exercisor) >= amount, \"Not enough option tokens owned\");\n        _burn(exercisor, amount);\n        uint256 dai_collateral = amount.mul(_strike);\n        require(DAI_CONTRACT.transferFrom(address(this), exercisor, dai_collateral), \"DAI transfer unsuccessful\");\n        emit OptionExercised(exercisor, amount);\n        return true;\n    }\n    \n    // function writeOption() public payable beforeExpiration returns (bool success) {\n    //     require(msg.value > 0, \"Must write put option for at least 1 wei\");\n    //     _contributions[msg.sender] = msg.value;\n    //     _total_contribution.add(msg.value);\n    //     _mint(msg.sender, msg.value);\n    //     uint256 dai_collateral = msg.value.mul(_strike);\n    //     require(DAI_CONTRACT.transferFrom(msg.sender, address(this), dai_collateral), \"DAI transfer unsuccessful\");\n    //     emit OptionWrote(msg.sender, msg.value);\n        \n    //     return true;\n    // }\n\n    function writeOption(uint256 amount) public payable returns (bool success) {\n        require(PBTC_CONTRACT.transferFrom(msg.sender, address(this), amount), \"pBTC transfer unsuccessful\");\n        _contributions[msg.sender] = amount;\n        _total_contribution.add(amount);\n        _mint(msg.sender, amount);\n        emit OptionWrote(msg.sender, msg.value);\n        return true;\n    }\n\n    modifier afterExpiration() {\n        require(block.timestamp > _expiration_timestamp, \"Option contract has not expired.\");\n        _;\n    }\n    \n    function claimContribution() public afterExpiration returns (bool success) {\n\n        require(_contributions[msg.sender] > 0, \"No contribution found\");\n        \n        uint256 total_balance_wei = address(this).balance;\n        uint256 claimer_proportion_wei_num = total_balance_wei.mul(_contributions[msg.sender]);\n        uint256 claimer_proportion_wei = claimer_proportion_wei_num.div(_total_contribution);\n\n        uint256 total_balance_dai = DAI_CONTRACT.balanceOf(address(this));\n        uint256 claimer_proportion_dai_num = total_balance_dai.mul(_contributions[msg.sender]);\n        uint256 claimer_proportion_dai = claimer_proportion_dai_num.div(_total_contribution);\n\n        _total_contribution.sub(_contributions[msg.sender]);\n        _contributions[msg.sender] = 0;\n\n        if(claimer_proportion_dai > 0){\n            DAI_CONTRACT.transfer(msg.sender, claimer_proportion_dai);\n        }\n        \n        if(claimer_proportion_wei > 0){\n            msg.sender.transfer(claimer_proportion_wei);\n        }\n        \n        return true;\n    }\n    \n    function deleteContract() public afterExpiration {\n\n        uint256 total_balance_eth = address(this).balance;\n        uint256 total_balance_dai = DAI_CONTRACT.balanceOf(address(this));\n        \n        if(total_balance_eth == 0 && total_balance_dai == 0){\n            selfdestruct(msg.sender);\n        }\n    }\n\n}\n",
  "sourcePath": "C:\\Users\\datta\\Desktop\\hackmoney\\ptokens_option_contracts_frontend\\contracts\\ETHPutOption.sol",
  "compiler": {
    "name": "solc",
    "version": "0.5.0+commit.1d4f565a.Emscripten.clang"
  },
  "schemaVersion": "3.1.0",
  "updatedAt": "2020-05-24T11:25:35.921Z",
  "devdoc": {
    "methods": {
      "allowance(address,address)": {
        "details": "See `IERC20.allowance`."
      },
      "approve(address,uint256)": {
        "details": "See `IERC20.approve`.     * Requirements:     * - `spender` cannot be the zero address."
      },
      "balanceOf(address)": {
        "details": "See `IERC20.balanceOf`."
      },
      "decimals()": {
        "details": "Returns the number of decimals used to get its user representation. For example, if `decimals` equals `2`, a balance of `505` tokens should be displayed to a user as `5,05` (`505 / 10 ** 2`).     * Tokens usually opt for a value of 18, imitating the relationship between Ether and Wei.     * > Note that this information is only used for _display_ purposes: it in no way affects any of the arithmetic of the contract, including `IERC20.balanceOf` and `IERC20.transfer`."
      },
      "decreaseAllowance(address,uint256)": {
        "details": "Atomically decreases the allowance granted to `spender` by the caller.     * This is an alternative to `approve` that can be used as a mitigation for problems described in `IERC20.approve`.     * Emits an `Approval` event indicating the updated allowance.     * Requirements:     * - `spender` cannot be the zero address. - `spender` must have allowance for the caller of at least `subtractedValue`."
      },
      "increaseAllowance(address,uint256)": {
        "details": "Atomically increases the allowance granted to `spender` by the caller.     * This is an alternative to `approve` that can be used as a mitigation for problems described in `IERC20.approve`.     * Emits an `Approval` event indicating the updated allowance.     * Requirements:     * - `spender` cannot be the zero address."
      },
      "name()": {
        "details": "Returns the name of the token."
      },
      "symbol()": {
        "details": "Returns the symbol of the token, usually a shorter version of the name."
      },
      "totalSupply()": {
        "details": "See `IERC20.totalSupply`."
      },
      "transfer(address,uint256)": {
        "details": "See `IERC20.transfer`.     * Requirements:     * - `recipient` cannot be the zero address. - the caller must have a balance of at least `amount`."
      },
      "transferFrom(address,address,uint256)": {
        "details": "See `IERC20.transferFrom`.     * Emits an `Approval` event indicating the updated allowance. This is not required by the EIP. See the note at the beginning of `ERC20`;     * Requirements: - `sender` and `recipient` cannot be the zero address. - `sender` must have a balance of at least `value`. - the caller must have allowance for `sender`'s tokens of at least `amount`."
      }
    }
  },
  "userdoc": {
    "methods": {}
  }
}